{
  "address": "0xc5a5C42992dECbae36851359345FE25997F5C42d",
  "abi": [
    {
      "inputs": [
        {
          "internalType": "contract LyraVault",
          "name": "_vault",
          "type": "address"
        },
        {
          "internalType": "enum LyraAdapter.OptionType",
          "name": "_optionType",
          "type": "uint8"
        }
      ],
      "stateMutability": "nonpayable",
      "type": "constructor"
    },
    {
      "inputs": [
        {
          "internalType": "address",
          "name": "thrower",
          "type": "address"
        },
        {
          "internalType": "uint256",
          "name": "baseExpected",
          "type": "uint256"
        },
        {
          "internalType": "uint256",
          "name": "baseReceived",
          "type": "uint256"
        }
      ],
      "name": "ExchangerBaseReceivedTooLow",
      "type": "error"
    },
    {
      "inputs": [
        {
          "internalType": "address",
          "name": "thrower",
          "type": "address"
        },
        {
          "internalType": "uint256",
          "name": "quoteExpected",
          "type": "uint256"
        },
        {
          "internalType": "uint256",
          "name": "quoteReceived",
          "type": "uint256"
        }
      ],
      "name": "ExchangerQuoteReceivedTooLow",
      "type": "error"
    },
    {
      "anonymous": false,
      "inputs": [
        {
          "indexed": true,
          "internalType": "address",
          "name": "previousOwner",
          "type": "address"
        },
        {
          "indexed": true,
          "internalType": "address",
          "name": "newOwner",
          "type": "address"
        }
      ],
      "name": "OwnershipTransferred",
      "type": "event"
    },
    {
      "inputs": [
        {
          "internalType": "uint256",
          "name": "expiry",
          "type": "uint256"
        }
      ],
      "name": "_isValidExpiry",
      "outputs": [
        {
          "internalType": "bool",
          "name": "isValid",
          "type": "bool"
        }
      ],
      "stateMutability": "view",
      "type": "function"
    },
    {
      "inputs": [],
      "name": "activeExpiry",
      "outputs": [
        {
          "internalType": "uint256",
          "name": "",
          "type": "uint256"
        }
      ],
      "stateMutability": "view",
      "type": "function"
    },
    {
      "inputs": [
        {
          "internalType": "uint256",
          "name": "",
          "type": "uint256"
        }
      ],
      "name": "activeStrikeIds",
      "outputs": [
        {
          "internalType": "uint256",
          "name": "",
          "type": "uint256"
        }
      ],
      "stateMutability": "view",
      "type": "function"
    },
    {
      "inputs": [],
      "name": "baseAsset",
      "outputs": [
        {
          "internalType": "contract IERC20",
          "name": "",
          "type": "address"
        }
      ],
      "stateMutability": "view",
      "type": "function"
    },
    {
      "inputs": [],
      "name": "collateralAsset",
      "outputs": [
        {
          "internalType": "contract IERC20",
          "name": "",
          "type": "address"
        }
      ],
      "stateMutability": "view",
      "type": "function"
    },
    {
      "inputs": [],
      "name": "curveSwap",
      "outputs": [
        {
          "internalType": "contract ICurve",
          "name": "",
          "type": "address"
        }
      ],
      "stateMutability": "view",
      "type": "function"
    },
    {
      "inputs": [
        {
          "internalType": "uint256",
          "name": "strikeId",
          "type": "uint256"
        },
        {
          "internalType": "address",
          "name": "lyraRewardRecipient",
          "type": "address"
        }
      ],
      "name": "doTrade",
      "outputs": [
        {
          "internalType": "uint256",
          "name": "positionId",
          "type": "uint256"
        },
        {
          "internalType": "uint256",
          "name": "premiumReceived",
          "type": "uint256"
        },
        {
          "internalType": "uint256",
          "name": "collateralToAdd",
          "type": "uint256"
        }
      ],
      "stateMutability": "nonpayable",
      "type": "function"
    },
    {
      "inputs": [
        {
          "internalType": "address",
          "name": "lyraRewardRecipient",
          "type": "address"
        }
      ],
      "name": "emergencyCloseAll",
      "outputs": [],
      "stateMutability": "nonpayable",
      "type": "function"
    },
    {
      "inputs": [],
      "name": "feeCounter",
      "outputs": [
        {
          "internalType": "contract BasicFeeCounter",
          "name": "",
          "type": "address"
        }
      ],
      "stateMutability": "view",
      "type": "function"
    },
    {
      "inputs": [
        {
          "components": [
            {
              "internalType": "uint256",
              "name": "positionId",
              "type": "uint256"
            },
            {
              "internalType": "uint256",
              "name": "strikeId",
              "type": "uint256"
            },
            {
              "internalType": "enum LyraAdapter.OptionType",
              "name": "optionType",
              "type": "uint8"
            },
            {
              "internalType": "uint256",
              "name": "amount",
              "type": "uint256"
            },
            {
              "internalType": "uint256",
              "name": "collateral",
              "type": "uint256"
            },
            {
              "internalType": "enum LyraAdapter.PositionState",
              "name": "state",
              "type": "uint8"
            }
          ],
          "internalType": "struct LyraAdapter.OptionPosition",
          "name": "position",
          "type": "tuple"
        },
        {
          "internalType": "uint256",
          "name": "strikePrice",
          "type": "uint256"
        },
        {
          "internalType": "uint256",
          "name": "strikeExpiry",
          "type": "uint256"
        }
      ],
      "name": "getAllowedCloseAmount",
      "outputs": [
        {
          "internalType": "uint256",
          "name": "closeAmount",
          "type": "uint256"
        }
      ],
      "stateMutability": "view",
      "type": "function"
    },
    {
      "inputs": [
        {
          "components": [
            {
              "internalType": "uint256",
              "name": "id",
              "type": "uint256"
            },
            {
              "internalType": "uint256",
              "name": "expiry",
              "type": "uint256"
            },
            {
              "internalType": "uint256",
              "name": "strikePrice",
              "type": "uint256"
            },
            {
              "internalType": "uint256",
              "name": "skew",
              "type": "uint256"
            },
            {
              "internalType": "uint256",
              "name": "boardIv",
              "type": "uint256"
            }
          ],
          "internalType": "struct LyraAdapter.Strike",
          "name": "strike",
          "type": "tuple"
        }
      ],
      "name": "getRequiredCollateral",
      "outputs": [
        {
          "internalType": "uint256",
          "name": "collateralToAdd",
          "type": "uint256"
        },
        {
          "internalType": "uint256",
          "name": "setCollateralTo",
          "type": "uint256"
        }
      ],
      "stateMutability": "view",
      "type": "function"
    },
    {
      "inputs": [],
      "name": "greekCache",
      "outputs": [
        {
          "internalType": "contract IOptionGreekCache",
          "name": "",
          "type": "address"
        }
      ],
      "stateMutability": "view",
      "type": "function"
    },
    {
      "inputs": [],
      "name": "gwavOracle",
      "outputs": [
        {
          "internalType": "contract IGWAVOracle",
          "name": "",
          "type": "address"
        }
      ],
      "stateMutability": "view",
      "type": "function"
    },
    {
      "inputs": [
        {
          "internalType": "address",
          "name": "_lyraRegistry",
          "type": "address"
        },
        {
          "internalType": "address",
          "name": "_optionMarket",
          "type": "address"
        },
        {
          "internalType": "address",
          "name": "_curveSwap",
          "type": "address"
        },
        {
          "internalType": "address",
          "name": "_feeCounter",
          "type": "address"
        }
      ],
      "name": "initAdapter",
      "outputs": [],
      "stateMutability": "nonpayable",
      "type": "function"
    },
    {
      "inputs": [
        {
          "components": [
            {
              "internalType": "uint256",
              "name": "id",
              "type": "uint256"
            },
            {
              "internalType": "uint256",
              "name": "expiry",
              "type": "uint256"
            },
            {
              "internalType": "uint256",
              "name": "strikePrice",
              "type": "uint256"
            },
            {
              "internalType": "uint256",
              "name": "skew",
              "type": "uint256"
            },
            {
              "internalType": "uint256",
              "name": "boardIv",
              "type": "uint256"
            }
          ],
          "internalType": "struct LyraAdapter.Strike",
          "name": "strike",
          "type": "tuple"
        }
      ],
      "name": "isValidStrike",
      "outputs": [
        {
          "internalType": "bool",
          "name": "isValid",
          "type": "bool"
        }
      ],
      "stateMutability": "view",
      "type": "function"
    },
    {
      "inputs": [
        {
          "internalType": "uint256",
          "name": "",
          "type": "uint256"
        }
      ],
      "name": "lastTradeTimestamp",
      "outputs": [
        {
          "internalType": "uint256",
          "name": "",
          "type": "uint256"
        }
      ],
      "stateMutability": "view",
      "type": "function"
    },
    {
      "inputs": [],
      "name": "liquidityPool",
      "outputs": [
        {
          "internalType": "contract ILiquidityPool",
          "name": "",
          "type": "address"
        }
      ],
      "stateMutability": "view",
      "type": "function"
    },
    {
      "inputs": [],
      "name": "lyraRegistry",
      "outputs": [
        {
          "internalType": "contract ILyraRegistry",
          "name": "",
          "type": "address"
        }
      ],
      "stateMutability": "view",
      "type": "function"
    },
    {
      "inputs": [],
      "name": "optionMarket",
      "outputs": [
        {
          "internalType": "contract IOptionMarket",
          "name": "",
          "type": "address"
        }
      ],
      "stateMutability": "view",
      "type": "function"
    },
    {
      "inputs": [],
      "name": "optionPricer",
      "outputs": [
        {
          "internalType": "contract IOptionMarketPricer",
          "name": "",
          "type": "address"
        }
      ],
      "stateMutability": "view",
      "type": "function"
    },
    {
      "inputs": [],
      "name": "optionToken",
      "outputs": [
        {
          "internalType": "contract IOptionToken",
          "name": "",
          "type": "address"
        }
      ],
      "stateMutability": "view",
      "type": "function"
    },
    {
      "inputs": [],
      "name": "optionType",
      "outputs": [
        {
          "internalType": "enum LyraAdapter.OptionType",
          "name": "",
          "type": "uint8"
        }
      ],
      "stateMutability": "view",
      "type": "function"
    },
    {
      "inputs": [],
      "name": "owner",
      "outputs": [
        {
          "internalType": "address",
          "name": "",
          "type": "address"
        }
      ],
      "stateMutability": "view",
      "type": "function"
    },
    {
      "inputs": [],
      "name": "quoteAsset",
      "outputs": [
        {
          "internalType": "contract IERC20",
          "name": "",
          "type": "address"
        }
      ],
      "stateMutability": "view",
      "type": "function"
    },
    {
      "inputs": [
        {
          "internalType": "uint256",
          "name": "positionId",
          "type": "uint256"
        },
        {
          "internalType": "uint256",
          "name": "closeAmount",
          "type": "uint256"
        },
        {
          "internalType": "address",
          "name": "lyraRewardRecipient",
          "type": "address"
        }
      ],
      "name": "reducePosition",
      "outputs": [],
      "stateMutability": "nonpayable",
      "type": "function"
    },
    {
      "inputs": [],
      "name": "renounceOwnership",
      "outputs": [],
      "stateMutability": "nonpayable",
      "type": "function"
    },
    {
      "inputs": [],
      "name": "returnFundsAndClearStrikes",
      "outputs": [],
      "stateMutability": "nonpayable",
      "type": "function"
    },
    {
      "inputs": [
        {
          "internalType": "uint256",
          "name": "boardId",
          "type": "uint256"
        }
      ],
      "name": "setBoard",
      "outputs": [],
      "stateMutability": "nonpayable",
      "type": "function"
    },
    {
      "inputs": [
        {
          "internalType": "address",
          "name": "_lyraRegistry",
          "type": "address"
        },
        {
          "internalType": "address",
          "name": "_optionMarket",
          "type": "address"
        },
        {
          "internalType": "address",
          "name": "_curveSwap",
          "type": "address"
        },
        {
          "internalType": "address",
          "name": "_feeCounter",
          "type": "address"
        }
      ],
      "name": "setLyraAddresses",
      "outputs": [],
      "stateMutability": "nonpayable",
      "type": "function"
    },
    {
      "inputs": [
        {
          "components": [
            {
              "internalType": "uint256",
              "name": "minTimeToExpiry",
              "type": "uint256"
            },
            {
              "internalType": "uint256",
              "name": "maxTimeToExpiry",
              "type": "uint256"
            },
            {
              "internalType": "int256",
              "name": "targetDelta",
              "type": "int256"
            },
            {
              "internalType": "uint256",
              "name": "maxDeltaGap",
              "type": "uint256"
            },
            {
              "internalType": "uint256",
              "name": "minVol",
              "type": "uint256"
            },
            {
              "internalType": "uint256",
              "name": "maxVol",
              "type": "uint256"
            },
            {
              "internalType": "uint256",
              "name": "size",
              "type": "uint256"
            },
            {
              "internalType": "uint256",
              "name": "minTradeInterval",
              "type": "uint256"
            },
            {
              "internalType": "uint256",
              "name": "maxVolVariance",
              "type": "uint256"
            },
            {
              "internalType": "uint256",
              "name": "gwavPeriod",
              "type": "uint256"
            },
            {
              "internalType": "uint256",
              "name": "collatBuffer",
              "type": "uint256"
            },
            {
              "internalType": "uint256",
              "name": "collatPercent",
              "type": "uint256"
            }
          ],
          "internalType": "struct DeltaShortStrategy.DeltaShortStrategyDetail",
          "name": "_deltaStrategy",
          "type": "tuple"
        }
      ],
      "name": "setStrategyDetail",
      "outputs": [],
      "stateMutability": "nonpayable",
      "type": "function"
    },
    {
      "inputs": [],
      "name": "shortCollateral",
      "outputs": [
        {
          "internalType": "contract IShortCollateral",
          "name": "",
          "type": "address"
        }
      ],
      "stateMutability": "view",
      "type": "function"
    },
    {
      "inputs": [],
      "name": "strategyDetail",
      "outputs": [
        {
          "internalType": "uint256",
          "name": "minTimeToExpiry",
          "type": "uint256"
        },
        {
          "internalType": "uint256",
          "name": "maxTimeToExpiry",
          "type": "uint256"
        },
        {
          "internalType": "int256",
          "name": "targetDelta",
          "type": "int256"
        },
        {
          "internalType": "uint256",
          "name": "maxDeltaGap",
          "type": "uint256"
        },
        {
          "internalType": "uint256",
          "name": "minVol",
          "type": "uint256"
        },
        {
          "internalType": "uint256",
          "name": "maxVol",
          "type": "uint256"
        },
        {
          "internalType": "uint256",
          "name": "size",
          "type": "uint256"
        },
        {
          "internalType": "uint256",
          "name": "minTradeInterval",
          "type": "uint256"
        },
        {
          "internalType": "uint256",
          "name": "maxVolVariance",
          "type": "uint256"
        },
        {
          "internalType": "uint256",
          "name": "gwavPeriod",
          "type": "uint256"
        },
        {
          "internalType": "uint256",
          "name": "collatBuffer",
          "type": "uint256"
        },
        {
          "internalType": "uint256",
          "name": "collatPercent",
          "type": "uint256"
        }
      ],
      "stateMutability": "view",
      "type": "function"
    },
    {
      "inputs": [
        {
          "internalType": "uint256",
          "name": "",
          "type": "uint256"
        }
      ],
      "name": "strikeToPositionId",
      "outputs": [
        {
          "internalType": "uint256",
          "name": "",
          "type": "uint256"
        }
      ],
      "stateMutability": "view",
      "type": "function"
    },
    {
      "inputs": [
        {
          "internalType": "address",
          "name": "newOwner",
          "type": "address"
        }
      ],
      "name": "transferOwnership",
      "outputs": [],
      "stateMutability": "nonpayable",
      "type": "function"
    },
    {
      "inputs": [],
      "name": "updateDelegateApproval",
      "outputs": [],
      "stateMutability": "nonpayable",
      "type": "function"
    },
    {
      "inputs": [],
      "name": "vault",
      "outputs": [
        {
          "internalType": "contract LyraVault",
          "name": "",
          "type": "address"
        }
      ],
      "stateMutability": "view",
      "type": "function"
    }
  ],
  "transactionHash": "0x7e1dfe338b1470c92122df102bb372fdf30661ed4063d61ada53c956a597e6a2",
  "args": [
    "0x09635F643e140090A9A8Dcd712eD6285858ceBef",
    4
  ],
  "numDeployments": 1,
  "solcInputHash": "da1b2efd2c033d4948af2192ee20b985",
  "bytecode": "0x60c06040523480156200001157600080fd5b5060405162005032380380620050328339810160408190526200003491620000d8565b8181620000413362000088565b6001600160a01b03821660805280600481111562000063576200006362000125565b60a08160048111156200007a576200007a62000125565b81525050505050506200013b565b600080546001600160a01b038381166001600160a01b0319831681178455604051919092169283917f8be0079c531659141344cd1fd0a4f28419497f9722a3daafe3b4186f6b6457e09190a35050565b60008060408385031215620000ec57600080fd5b82516001600160a01b03811681146200010457600080fd5b6020840151909250600581106200011a57600080fd5b809150509250929050565b634e487b7160e01b600052602160045260246000fd5b60805160a051614e4c620001e6600039600081816105e9015281816120240152818161205f01528181612430015281816124f3015281816127d60152612e8f01526000818161059c0152818161086201528181610a5201528181610afa01528181610d4d01528181610fbc0152818161106b01528181611172015281816112920152818161130b015281816114e20152818161161301528181612a7f0152612bb00152614e4c6000f3fe608060405234801561001057600080fd5b506004361061025c5760003560e01c80638da5cb5b11610145578063cdf456e1116100bd578063f2fde38b1161008c578063fdf262b711610071578063fdf262b7146105be578063ffcd00ac146105d1578063ffd9eedb146105e457600080fd5b8063f2fde38b14610584578063fbfa77cf1461059757600080fd5b8063cdf456e11461052b578063d4aaa9eb1461053e578063d8fca1ac1461055e578063ee9e0e6a1461057157600080fd5b8063ae74fc4d11610114578063bb4a9f88116100f9578063bb4a9f88146104f2578063bc4e440514610505578063cae1c5821461051857600080fd5b8063ae74fc4d146104cc578063b5ca94a0146104df57600080fd5b80638da5cb5b14610467578063a65be9ba14610478578063a8c379c21461048b578063aabaecd6146104b957600080fd5b80635cf03549116101d85780637083a904116101a75780637dd0db1b1161018c5780637dd0db1b1461043957806383cea5421461044c578063870dcaeb1461045457600080fd5b80637083a9041461041e578063715018a61461043157600080fd5b80635cf03549146103dd578063619a84cc146103f0578063621318cd146103f8578063665a11ca1461040b57600080fd5b806338b740541161022f57806354f1e01f1161021457806354f1e01f1461038d57806357949815146103b55780635a3c76ab146103c857600080fd5b806338b7405414610357578063478620c01461036a57600080fd5b806303c4d3d614610261578063131b2f861461027d5780632a37ad5a1461029d5780632bab754b1461032c575b600080fd5b61026a601e5481565b6040519081526020015b60405180910390f35b61026a61028b36600461400b565b600f6020526000908152604090205481565b601254601354601454601554601654601754601854601954601a54601b54601c54601d546102d39b9a999897969594939291908c565b604080519c8d5260208d019b909b52998b019890985260608a0196909652608089019490945260a088019290925260c087015260e086015261010085015261012084015261014083015261016082015261018001610274565b60045461033f906001600160a01b031681565b6040516001600160a01b039091168152602001610274565b60095461033f906001600160a01b031681565b61037d610378366004614147565b610618565b6040519015158152602001610274565b6103a061039b366004614147565b610705565b60408051928352602083019190915201610274565b600d5461033f906001600160a01b031681565b6103db6103d6366004614197565b6107ff565b005b6103db6103eb36600461424b565b6109d2565b6103db610bd8565b61037d61040636600461400b565b610d18565b60055461033f906001600160a01b031681565b6103db61042c3660046142a7565b610d42565b6103db611101565b6103db6104473660046142e0565b611167565b6103db611287565b60065461033f906001600160a01b031681565b6000546001600160a01b031661033f565b60075461033f906001600160a01b031681565b61049e6104993660046142fd565b6112fc565b60408051938452602084019290925290820152606001610274565b600e5461033f906001600160a01b031681565b6103db6104da36600461400b565b611608565b6103db6104ed36600461424b565b6116dd565b60035461033f906001600160a01b031681565b61026a61051336600461400b565b611b9c565b60085461033f906001600160a01b031681565b600b5461033f906001600160a01b031681565b61026a61054c36600461400b565b60116020526000908152604090205481565b600c5461033f906001600160a01b031681565b60015461033f906001600160a01b031681565b6103db6105923660046142e0565b611bbd565b61033f7f000000000000000000000000000000000000000000000000000000000000000081565b600a5461033f906001600160a01b031681565b61026a6105df366004614347565b611c9c565b61060b7f000000000000000000000000000000000000000000000000000000000000000081565b6040516102749190614408565b60008160200151601e541461062f57506000919050565b600061063e8360000151611d15565b9050600061064b82611d5c565b60008151811061065d5761065d61441b565b60200260200101519050600061067283611eb0565b6000815181106106845761068461441b565b60200260200101519050600061069861201e565b6106b7576106a86012600a61452b565b6106b29083614537565b6106b9565b815b905060006106d6826012600201546106d19190614537565b6120a1565b60165490915084108015906106ed57506017548411155b80156106fa575060155481105b979650505050505050565b6018546000908190816107166120c1565b8551600090815260116020526040812054919250908190156107815786516000908152601160205260408120546107559061075090611d15565b6121a9565b6000815181106107675761076761441b565b602002602001015190508060800151915080606001519250505b60006107a688604001518960200151866000015188876107a1919061458f565b612428565b905060006107c76012600b01546107c18b6040015189612492565b906124b5565b6107d1908461458f565b90506107e66107e083836124d7565b846124d7565b96506107f283886145a7565b9750505050505050915091565b6000546001600160a01b0316331461085e5760405162461bcd60e51b815260206004820181905260248201527f4f776e61626c653a2063616c6c6572206973206e6f7420746865206f776e657260448201526064015b60405180910390fd5b60007f00000000000000000000000000000000000000000000000000000000000000006001600160a01b0316632728f3336040518163ffffffff1660e01b81526004016101006040518083038186803b1580156108ba57600080fd5b505afa1580156108ce573d6000803e3d6000fd5b505050506040513d601f19601f820116820180604052508101906108f2919061460b565b975050505050505050801561096f5760405162461bcd60e51b815260206004820152602960248201527f63616e6e6f74206368616e676520737472617465677920696620726f756e642060448201527f69732061637469766500000000000000000000000000000000000000000000006064820152608401610855565b508051601255602081015160135560408101516014556060810151601555608081015160165560a081015160175560c081015160185560e0810151601955610100810151601a55610120810151601b55610140810151601c556101600151601d55565b6000546001600160a01b03163314610a2c5760405162461bcd60e51b815260206004820181905260248201527f4f776e61626c653a2063616c6c6572206973206e6f7420746865206f776e65726044820152606401610855565b610a38848484846116dd565b600a5460405163095ea7b360e01b81526001600160a01b037f00000000000000000000000000000000000000000000000000000000000000008116600483015260001960248301529091169063095ea7b390604401602060405180830381600087803b158015610aa757600080fd5b505af1158015610abb573d6000803e3d6000fd5b505050506040513d601f19601f82011682018060405250810190610adf919061469d565b50600b5460405163095ea7b360e01b81526001600160a01b037f00000000000000000000000000000000000000000000000000000000000000008116600483015260001960248301529091169063095ea7b390604401602060405180830381600087803b158015610b4f57600080fd5b505af1158015610b63573d6000803e3d6000fd5b505050506040513d601f19601f82011682018060405250810190610b87919061469d565b50610b906124ed565b610ba557600a546001600160a01b0316610bb2565b600b546001600160a01b03165b600e80546001600160a01b0319166001600160a01b039290921691909117905550505050565b6000546001600160a01b03163314610c325760405162461bcd60e51b815260206004820181905260248201527f4f776e61626c653a2063616c6c6572206973206e6f7420746865206f776e65726044820152606401610855565b600260009054906101000a90046001600160a01b03166001600160a01b0316633535c97b6040518163ffffffff1660e01b815260040160206040518083038186803b158015610c8057600080fd5b505afa158015610c94573d6000803e3d6000fd5b505050506040513d601f19601f82011682018060405250810190610cb891906146c3565b60025460405163447fbc6360e01b81526001600160a01b03918216600482015291169063447fbc6390602401600060405180830381600087803b158015610cfe57600080fd5b505af1158015610d12573d6000803e3d6000fd5b50505050565b600080610d2483612534565b6012549091508110801590610d3b57506013548111155b9392505050565b336001600160a01b037f00000000000000000000000000000000000000000000000000000000000000001614610da75760405162461bcd60e51b815260206004820152600a6024820152691bdb9b1e4815985d5b1d60b21b6044820152606401610855565b6000610db561075085611d15565b600081518110610dc757610dc761441b565b602002602001015190506000610de8610de38360200151611d15565b612590565b600081518110610dfa57610dfa61441b565b602002602001015190508460116000846020015181526020019081526020016000205414610e6a5760405162461bcd60e51b815260206004820152601260248201527f696e76616c696420706f736974696f6e496400000000000000000000000000006044820152606401610855565b610e7d8282604001518360200151611c9c565b841115610ef25760405162461bcd60e51b815260206004820152602360248201527f616d6f756e74206578636565647320616c6c6f77656420636c6f736520616d6f60448201527f756e7400000000000000000000000000000000000000000000000000000000006064820152608401610855565b6000610f0982601260050154601260060154612736565b9050610f1983866000848861278f565b610f216124ed565b1561105157600b546040516370a0823160e01b81523060048201526000916001600160a01b0316906370a082319060240160206040518083038186803b158015610f6a57600080fd5b505afa158015610f7e573d6000803e3d6000fd5b505050506040513d601f19601f82011682018060405250810190610fa291906146e0565b600b5460405163a9059cbb60e01b81526001600160a01b037f0000000000000000000000000000000000000000000000000000000000000000811660048301526024820184905292935091169063a9059cbb90604401602060405180830381600087803b15801561101257600080fd5b505af1158015611026573d6000803e3d6000fd5b505050506040513d601f19601f8201168201806040525081019061104a919061469d565b50506110f9565b600a5460405163a9059cbb60e01b81526001600160a01b037f000000000000000000000000000000000000000000000000000000000000000081166004830152602482018890529091169063a9059cbb90604401602060405180830381600087803b1580156110bf57600080fd5b505af11580156110d3573d6000803e3d6000fd5b505050506040513d601f19601f820116820180604052508101906110f7919061469d565b505b505050505050565b6000546001600160a01b0316331461115b5760405162461bcd60e51b815260206004820181905260248201527f4f776e61626c653a2063616c6c6572206973206e6f7420746865206f776e65726044820152606401610855565b61116560006128c3565b565b336001600160a01b037f000000000000000000000000000000000000000000000000000000000000000016146111cc5760405162461bcd60e51b815260206004820152600a6024820152691bdb9b1e4815985d5b1d60b21b6044820152606401610855565b60005b60105481101561127b576000601082815481106111ee576111ee61441b565b90600052602060002001549050600061121c6107506011600085815260200190815260200160002054611d15565b60008151811061122e5761122e61441b565b6020026020010151905061124c81826060015160006000198861278f565b506000908152601160209081526040808320839055600f90915281205580611273816146f9565b9150506111cf565b50611284612913565b50565b336001600160a01b037f000000000000000000000000000000000000000000000000000000000000000016146112ec5760405162461bcd60e51b815260206004820152600a6024820152691bdb9b1e4815985d5b1d60b21b6044820152606401610855565b6112f4612913565b611165612c98565b60008080336001600160a01b037f000000000000000000000000000000000000000000000000000000000000000016146113655760405162461bcd60e51b815260206004820152600a6024820152691bdb9b1e4815985d5b1d60b21b6044820152606401610855565b6019546000868152600f602052604090205442916113829161458f565b11156113d05760405162461bcd60e51b815260206004820152601c60248201527f6d696e2074696d6520696e74657276616c206e6f7420706173736564000000006044820152606401610855565b6113d985612dbf565b6114255760405162461bcd60e51b815260206004820152601560248201527f766f6c2076617269616e636520657863656564656400000000000000000000006044820152606401610855565b6000611433610de387611d15565b6000815181106114455761144561441b565b6020026020010151905061145881610618565b6114a45760405162461bcd60e51b815260206004820152600e60248201527f696e76616c696420737472696b650000000000000000000000000000000000006044820152606401610855565b60006114af82610705565b600e546040517f23b872dd0000000000000000000000000000000000000000000000000000000081526001600160a01b037f0000000000000000000000000000000000000000000000000000000000000000811660048301523060248301526044820185905293965091935091909116906323b872dd90606401602060405180830381600087803b15801561154357600080fd5b505af1158015611557573d6000803e3d6000fd5b505050506040513d601f19601f8201168201806040525081019061157b919061469d565b6115ed5760405162461bcd60e51b815260206004820152602560248201527f636f6c6c61746572616c207472616e736665722066726f6d207661756c74206660448201527f61696c65640000000000000000000000000000000000000000000000000000006064820152608401610855565b6115f8828288612e32565b9098909750929550919350505050565b336001600160a01b037f0000000000000000000000000000000000000000000000000000000000000000161461166d5760405162461bcd60e51b815260206004820152600a6024820152691bdb9b1e4815985d5b1d60b21b6044820152606401610855565b600061167882612fa7565b90506116878160200151610d18565b6116d35760405162461bcd60e51b815260206004820152600d60248201527f696e76616c696420626f617264000000000000000000000000000000000000006044820152606401610855565b60200151601e5550565b6000546001600160a01b031633146117375760405162461bcd60e51b815260206004820181905260248201527f4f776e61626c653a2063616c6c6572206973206e6f7420746865206f776e65726044820152606401610855565b600a546001600160a01b0316156117d257600a5460035460405163095ea7b360e01b81526001600160a01b0391821660048201526000602482015291169063095ea7b390604401602060405180830381600087803b15801561179857600080fd5b505af11580156117ac573d6000803e3d6000fd5b505050506040513d601f19601f820116820180604052508101906117d0919061469d565b505b600b546001600160a01b03161561186d57600b5460035460405163095ea7b360e01b81526001600160a01b0391821660048201526000602482015291169063095ea7b390604401602060405180830381600087803b15801561183357600080fd5b505af1158015611847573d6000803e3d6000fd5b505050506040513d601f19601f8201168201806040525081019061186b919061469d565b505b600380546001600160a01b038581166001600160a01b0319928316179092556001805492871692909116821790556040517f7f2e06000000000000000000000000000000000000000000000000000000000081527f53594e5448455449585f414441505445520000000000000000000000000000006004820152637f2e06009060240160206040518083038186803b15801561190857600080fd5b505afa15801561191c573d6000803e3d6000fd5b505050506040513d601f19601f8201168201806040525081019061194091906146c3565b600280546001600160a01b0319166001600160a01b039290921691909117905561196861309f565b600c80546001600160a01b038085166001600160a01b031992831617909255600d80548484169216919091179055600254604080517f3535c97b00000000000000000000000000000000000000000000000000000000815290519190921691633535c97b916004808301926020929190829003018186803b1580156119ec57600080fd5b505afa158015611a00573d6000803e3d6000fd5b505050506040513d601f19601f82011682018060405250810190611a2491906146c3565b60025460405163447fbc6360e01b81526001600160a01b03918216600482015291169063447fbc6390602401600060405180830381600087803b158015611a6a57600080fd5b505af1158015611a7e573d6000803e3d6000fd5b5050600a5460035460405163095ea7b360e01b81526001600160a01b03918216600482015260001960248201529116925063095ea7b39150604401602060405180830381600087803b158015611ad357600080fd5b505af1158015611ae7573d6000803e3d6000fd5b505050506040513d601f19601f82011682018060405250810190611b0b919061469d565b50600b5460035460405163095ea7b360e01b81526001600160a01b039182166004820152600019602482015291169063095ea7b390604401602060405180830381600087803b158015611b5d57600080fd5b505af1158015611b71573d6000803e3d6000fd5b505050506040513d601f19601f82011682018060405250810190611b95919061469d565b5050505050565b60108181548110611bac57600080fd5b600091825260209091200154905081565b6000546001600160a01b03163314611c175760405162461bcd60e51b815260206004820181905260248201527f4f776e61626c653a2063616c6c6572206973206e6f7420746865206f776e65726044820152606401610855565b6001600160a01b038116611c935760405162461bcd60e51b815260206004820152602660248201527f4f776e61626c653a206e6577206f776e657220697320746865207a65726f206160448201527f64647265737300000000000000000000000000000000000000000000000000006064820152608401610855565b611284816128c3565b600080611ca76120c1565b90506000611cc385858460000151670de0b6b3a7640000612428565b9050611cdc8660600151826124b590919063ffffffff16565b866080015110611ced576000611d0b565b6080860151611cfc90826131ee565b8660600151611d0b91906145a7565b9695505050505050565b604080516001808252818301909252606091602080830190803683370190505090508181600081518110611d4b57611d4b61441b565b602002602001018181525050919050565b80516060908067ffffffffffffffff811115611d7a57611d7a614024565b604051908082528060200260200182016040528015611da3578160200160208202803683370190505b50915060005b81811015611ea957600354845160009182916001600160a01b039091169063c4c4a0d090889086908110611ddf57611ddf61441b565b60200260200101516040518263ffffffff1660e01b8152600401611e0591815260200190565b60006040518083038186803b158015611e1d57600080fd5b505afa158015611e31573d6000803e3d6000fd5b505050506040513d6000823e601f3d908101601f19168201604052611e599190810190614881565b91509150611e78826040015182604001516124b590919063ffffffff16565b858481518110611e8a57611e8a61441b565b602002602001018181525050505080611ea2906146f9565b9050611da9565b5050919050565b80516060908067ffffffffffffffff811115611ece57611ece614024565b604051908082528060200260200182016040528015611ef7578160200160208202803683370190505b50915060005b81811015611ea9576000611f29858381518110611f1c57611f1c61441b565b6020026020010151613207565b604080517f8d31f3aa00000000000000000000000000000000000000000000000000000000815282516004820152602083015160248201529082015160448201526060820151606482015260808201516084820152909150733AE81479aBEeA6b451e070F955eDDFf1Bc70C00b90638d31f3aa9060a401604080518083038186803b158015611fb757600080fd5b505af4158015611fcb573d6000803e3d6000fd5b505050506040513d601f19601f82011682018060405250810190611fef91906148d2565b508483815181106120025761200261441b565b602090810291909101015250612017816146f9565b9050611efd565b600060047f00000000000000000000000000000000000000000000000000000000000000006004811115612054576120546143d4565b1480612091575060017f0000000000000000000000000000000000000000000000000000000000000000600481111561208f5761208f6143d4565b145b61209b5750600190565b50600090565b6000808212156120b9576120b4826148f6565b6120bb565b815b92915050565b6120e560405180606001604052806000815260200160008152602001600081525090565b6002546003546040517fcfbe7f440000000000000000000000000000000000000000000000000000000081526001600160a01b039182166004820152600092919091169063cfbe7f449060240160a06040518083038186803b15801561214a57600080fd5b505afa15801561215e573d6000803e3d6000fd5b505050506040513d601f19601f820116820180604052508101906121829190614913565b60408051606080820183528351825283015160208201526080909201519082015292915050565b600480546040517f23d354770000000000000000000000000000000000000000000000000000000081526060926000926001600160a01b0316916323d35477916121f591879101614963565b60006040518083038186803b15801561220d57600080fd5b505afa158015612221573d6000803e3d6000fd5b505050506040513d6000823e601f3d908101601f1916820160405261224991908101906149a7565b805190915060008167ffffffffffffffff81111561226957612269614024565b6040519080825280602002602001820160405280156122a257816020015b61228f613f27565b8152602001906001900390816122875790505b50905060005b8281101561241f576040518060c001604052808583815181106122cd576122cd61441b565b60200260200101516000015181526020018583815181106122f0576122f061441b565b60200260200101516020015181526020018583815181106123135761231361441b565b6020026020010151604001516004811115612330576123306143d4565b6004811115612341576123416143d4565b6004811115612352576123526143d4565b81526020018583815181106123695761236961441b565b602002602001015160600151815260200185838151811061238c5761238c61441b565b60200260200101516080015181526020018583815181106123af576123af61441b565b602002602001015160a0015160058111156123cc576123cc6143d4565b60058111156123dd576123dd6143d4565b60058111156123ee576123ee6143d4565b8152508282815181106124035761240361441b565b602002602001018190525080612418906146f9565b90506122a8565b50949350505050565b6000806124587f00000000000000000000000000000000000000000000000000000000000000008787878761345b565b601c5490915060009061246c9083906124b5565b9050600061247a8886612492565b90506124868282613506565b98975050505050505050565b600061249c6124ed565b6124af576124aa82846124b5565b610d3b565b50919050565b60006124c36012600a61452b565b6124cd8385614a95565b610d3b9190614ab4565b60008183116124e65781610d3b565b5090919050565b600060027f00000000000000000000000000000000000000000000000000000000000000006004811115612523576125236143d4565b1461252e5750600090565b50600190565b6000814211156125865760405162461bcd60e51b815260206004820152601160248201527f74696d657374616d7020657870697265640000000000000000000000000000006044820152606401610855565b6120bb42836145a7565b80516060908067ffffffffffffffff8111156125ae576125ae614024565b60405190808252806020026020018201604052801561261157816020015b6125fe6040518060a0016040528060008152602001600081526020016000815260200160008152602001600081525090565b8152602001906001900390816125cc5790505b50915060005b81811015611ea957600354845160009182916001600160a01b039091169063c4c4a0d09088908690811061264d5761264d61441b565b60200260200101516040518263ffffffff1660e01b815260040161267391815260200190565b60006040518083038186803b15801561268b57600080fd5b505afa15801561269f573d6000803e3d6000fd5b505050506040513d6000823e601f3d908101601f191682016040526126c79190810190614881565b915091506040518060a001604052808360000151815260200182602001518152602001836020015181526020018360400151815260200182604001518152508584815181106127185761271861441b565b602002602001018190525050508061272f906146f9565b9050612617565b6000806127416120c1565b90506000806127666127568860200151612534565b8785600001518a60400151613515565b9150915061277261201e565b6127855761278081866124b5565b6106fa565b6106fa82866124b5565b6000848660600151146127a65785608001516127a9565b60005b905060006040518061012001604052808860200151815260200188600001518152602001600381526020017f00000000000000000000000000000000000000000000000000000000000000006004811115612806576128066143d4565b8152602001878152602001838152602001868152602001858152602001846001600160a01b03168152509050600061283d8261369f565b905084816020015111156128b95760405162461bcd60e51b815260206004820152602a60248201527f7072656d69756d20706169642069732061626f7665206d61782065787065637460448201527f6564207072656d69756d000000000000000000000000000000000000000000006064820152608401610855565b5050505050505050565b600080546001600160a01b038381166001600160a01b0319831681178455604051919092169283917f8be0079c531659141344cd1fd0a4f28419497f9722a3daafe3b4186f6b6457e09190a35050565b600061291d6120c1565b600a546040516370a0823160e01b81523060048201529192506000916001600160a01b03909116906370a082319060240160206040518083038186803b15801561296657600080fd5b505afa15801561297a573d6000803e3d6000fd5b505050506040513d601f19601f8201168201806040525081019061299e91906146e0565b90506129a86124ed565b15612b9657600b546040516370a0823160e01b81523060048201526000916001600160a01b0316906370a082319060240160206040518083038186803b1580156129f157600080fd5b505afa158015612a05573d6000803e3d6000fd5b505050506040513d601f19601f82011682018060405250810190612a2991906146e0565b6040840151909150600090612a5b90612a446012600a61452b565b612a4e91906145a7565b85516107c19086906131ee565b90506000612a6984836136ff565b600b549091506001600160a01b031663a9059cbb7f0000000000000000000000000000000000000000000000000000000000000000612aa8848761458f565b6040517fffffffff0000000000000000000000000000000000000000000000000000000060e085901b1681526001600160a01b0390921660048301526024820152604401602060405180830381600087803b158015612b0657600080fd5b505af1158015612b1a573d6000803e3d6000fd5b505050506040513d601f19601f82011682018060405250810190612b3e919061469d565b611b955760405162461bcd60e51b8152602060048201526024808201527f6661696c656420746f2072657475726e2066756e64732066726f6d20737472616044820152637465677960e01b6064820152608401610855565b600a5460405163a9059cbb60e01b81526001600160a01b037f000000000000000000000000000000000000000000000000000000000000000081166004830152602482018490529091169063a9059cbb90604401602060405180830381600087803b158015612c0457600080fd5b505af1158015612c18573d6000803e3d6000fd5b505050506040513d601f19601f82011682018060405250810190612c3c919061469d565b612c945760405162461bcd60e51b8152602060048201526024808201527f6661696c656420746f2072657475726e2066756e64732066726f6d20737472616044820152637465677960e01b6064820152608401610855565b5050565b601054156111655760005b601054811015612db257600060108281548110612cc257612cc261441b565b906000526020600020015490506000612cf06107506011600085815260200190815260200160002054611d15565b600081518110612d0257612d0261441b565b6020026020010151905060016005811115612d1f57612d1f6143d4565b8160a001516005811115612d3557612d356143d4565b1415612d835760405162461bcd60e51b815260206004820152601c60248201527f63616e6e6f7420636c6561722061637469766520706f736974696f6e000000006044820152606401610855565b506000908152601160209081526040808320839055600f90915281205580612daa816146f9565b915050612ca3565b5061116560106000613f7e565b600080612dd1836012600901546137f1565b90506000612de6612de185611d15565b611d5c565b600081518110612df857612df861441b565b60200260200101519050600081831015612e1b57612e1683836145a7565b612e25565b612e2582846145a7565b601a541195945050505050565b6000806000612e4c86601260040154601260060154612736565b90506000612ef560405180610120016040528089600001518152602001601160008b600001518152602001908152602001600020548152602001600381526020017f00000000000000000000000000000000000000000000000000000000000000006004811115612ebf57612ebf6143d4565b815260200160126006015481526020018881526020018481526020016000198152602001876001600160a01b031681525061388e565b87516000908152600f6020526040902042905587518151919250612f1891613a3d565b8181602001511015612f925760405162461bcd60e51b815260206004820152602e60248201527f7072656d69756d2072656365697665642069732062656c6f77206d696e20657860448201527f706563746564207072656d69756d0000000000000000000000000000000000006064820152608401610855565b80516020909101519097909650945050505050565b612fd26040518060800160405280600081526020016000815260200160008152602001606081525090565b6003546040517f16a54f50000000000000000000000000000000000000000000000000000000008152600481018490526000916001600160a01b0316906316a54f509060240160006040518083038186803b15801561303057600080fd5b505afa158015613044573d6000803e3d6000fd5b505050506040513d6000823e601f3d908101601f1916820160405261306c9190810190614ad6565b60408051608080820183528351825260208085015190830152828401519282019290925291015160608201529392505050565b6001546003546040517fc4158a510000000000000000000000000000000000000000000000000000000081526001600160a01b039182166004820152600092919091169063c4158a51906024016101606040518083038186803b15801561310557600080fd5b505afa158015613119573d6000803e3d6000fd5b505050506040513d601f19601f8201168201806040525081019061313d9190614b13565b8051600580546001600160a01b03199081166001600160a01b03938416179091556040830151600980548316918416919091179055608083015160088054831691841691909117905560a083015160048054831691841691909117905560e0830151600680548316918416919091179055610100830151600780548316918416919091179055610120830151600a8054831691841691909117905561014090920151600b8054909316911617905550565b6000816131fd6012600a61452b565b6124cd9085614a95565b6132396040518060a0016040528060008152602001600081526020016000815260200160008152602001600081525090565b6003546040517fc4c4a0d00000000000000000000000000000000000000000000000000000000081526004810184905260009182916001600160a01b039091169063c4c4a0d09060240160006040518083038186803b15801561329b57600080fd5b505afa1580156132af573d6000803e3d6000fd5b505050506040513d6000823e601f3d908101601f191682016040526132d79190810190614881565b915091506040518060a001604052804283602001516132f691906145a7565b8152602001613316846040015184604001516124b590919063ffffffff16565b81526002546003546040517f7dbae6480000000000000000000000000000000000000000000000000000000081526001600160a01b039182166004820152602090930192911690637dbae6489060240160206040518083038186803b15801561337e57600080fd5b505afa158015613392573d6000803e3d6000fd5b505050506040513d601f19601f820116820180604052508101906133b691906146e0565b815260200183602001518152602001600960009054906101000a90046001600160a01b03166001600160a01b031663f369f2ac6040518163ffffffff1660e01b81526004016101406040518083038186803b15801561341457600080fd5b505afa158015613428573d6000803e3d6000fd5b505050506040513d601f19601f8201168201806040525081019061344c9190614bed565b61012001519052949350505050565b6009546000906001600160a01b031663a57ce682876004811115613481576134816143d4565b6004811115613492576134926143d4565b878787876040518663ffffffff1660e01b81526004016134b6959493929190614c74565b60206040518083038186803b1580156134ce57600080fd5b505afa1580156134e2573d6000803e3d6000fd5b505050506040513d601f19601f82011682018060405250810190611d0b91906146e0565b60008183106124e65781610d3b565b60008060006040518060a00160405280888152602001878152602001868152602001858152602001600960009054906101000a90046001600160a01b03166001600160a01b031663f369f2ac6040518163ffffffff1660e01b81526004016101406040518083038186803b15801561358c57600080fd5b505afa1580156135a0573d6000803e3d6000fd5b505050506040513d601f19601f820116820180604052508101906135c49190614bed565b61012001519052604080517fb6e62e5900000000000000000000000000000000000000000000000000000000815282516004820152602083015160248201529082015160448201526060820151606482015260808201516084820152909150733AE81479aBEeA6b451e070F955eDDFf1Bc70C00b9063b6e62e599060a401604080518083038186803b15801561365957600080fd5b505af415801561366d573d6000803e3d6000fd5b505050506040513d601f19601f8201168201806040525081019061369191906148d2565b909890975095505050505050565b6136c360405180606001604052806000815260200160008152602001600081525090565b81516136ce90613a93565b1580156136e3575081516136e190613b44565b155b156136f1576120bb82613bdc565b6120bb82613c1d565b919050565b6002546003546040517fae58cf0b0000000000000000000000000000000000000000000000000000000081526001600160a01b03918216600482015260248101859052600092919091169063ae58cf0b90604401602060405180830381600087803b15801561376d57600080fd5b505af1158015613781573d6000803e3d6000fd5b505050506040513d601f19601f820116820180604052508101906137a591906146e0565b9050818110156120bb576040517ff125dbc40000000000000000000000000000000000000000000000000000000081523060048201526024810183905260448101829052606401610855565b6007546040517f39a427f100000000000000000000000000000000000000000000000000000000815260048101849052602481018390526000916001600160a01b0316906339a427f19060440160206040518083038186803b15801561385657600080fd5b505afa15801561386a573d6000803e3d6000fd5b505050506040513d601f19601f82011682018060405250810190610d3b91906146e0565b6138b260405180606001604052806000815260200160008152602001600081525090565b6003546000906001600160a01b03166237f2bc6138ce85613c5a565b6040518263ffffffff1660e01b81526004016138ea9190614ca2565b606060405180830381600087803b15801561390457600080fd5b505af1158015613918573d6000803e3d6000fd5b505050506040513d601f19601f8201168201806040525081019061393c9190614d06565b6101008401519091506001600160a01b031615613a1757600d546003546101008501516001600160a01b039283169263a4ed578192169061397c87613c5a565b60800151602086015160408088015190517fffffffff0000000000000000000000000000000000000000000000000000000060e088901b1681526001600160a01b03958616600482015294909316602485015260448401919091526064830152608482015260a401600060405180830381600087803b1580156139fe57600080fd5b505af1158015613a12573d6000803e3d6000fd5b505050505b604080516060810182528251815260208084015190820152918101519082015292915050565b600082815260116020526040902054612c94576000828152601160205260408120919091556010805460018101825591527f1b6847dc741a1b0cd08d278845f9d819d87b734759afb55fe2de5cb82a9ae6720155565b600080613a9e613cf6565b60408051600180825281830190925291925060009190602080830190803683370190505090508381600081518110613ad857613ad861441b565b6020026020010181815250506000613aef82611eb0565b600081518110613b0157613b0161441b565b602002602001015190508260600151601260ff16600a613b21919061452b565b613b2b9190614537565b811380613b3b5750826060015181125b95945050505050565b600080613b4f613cf6565b60408051600180825281830190925291925060009190602080830190803683370190505090508381600081518110613b8957613b8961441b565b6020026020010181815250506000613ba082612590565b600081518110613bb257613bb261441b565b602002602001015190508260800151428260200151613bd191906145a7565b111595945050505050565b613c0060405180606001604052806000815260200160008152602001600081525090565b6003546000906001600160a01b03166392b4632c6138ce85613c5a565b613c4160405180606001604052806000815260200160008152602001600081525090565b6003546000906001600160a01b031663e4e83e3d6138ce855b613c62613f9c565b60405180610100016040528083600001518152602001836020015181526020018360400151815260200183606001516004811115613ca257613ca26143d4565b6004811115613cb357613cb36143d4565b6004811115613cc457613cc46143d4565b8152602001836080015181526020018360a0015181526020018360c0015181526020018360e001518152509050919050565b613d2f6040518060c001604052806000815260200160008152602001600081526020016000815260200160008152602001600081525090565b600854604080517fda53763100000000000000000000000000000000000000000000000000000000815290516000926001600160a01b03169163da53763191600480830192610120929190829003018186803b158015613d8e57600080fd5b505afa158015613da2573d6000803e3d6000fd5b505050506040513d601f19601f82011682018060405250810190613dc69190614d62565b90506000600860009054906101000a90046001600160a01b03166001600160a01b031663ffae4b366040518163ffffffff1660e01b81526004016101806040518083038186803b158015613e1957600080fd5b505afa158015613e2d573d6000803e3d6000fd5b505050506040513d601f19601f82011682018060405250810190613e519190614d7f565b90506040518060c001604052808360e0015181526020018361010001518152602001600960009054906101000a90046001600160a01b03166001600160a01b031663f369f2ac6040518163ffffffff1660e01b81526004016101406040518083038186803b158015613ec257600080fd5b505afa158015613ed6573d6000803e3d6000fd5b505050506040513d601f19601f82011682018060405250810190613efa9190614bed565b61012001518152602001826000015181526020018260400151815260200182602001518152509250505090565b6040518060c00160405280600081526020016000815260200160006004811115613f5357613f536143d4565b8152602001600081526020016000815260200160006005811115613f7957613f796143d4565b905290565b50805460008255906000526020600020908101906112849190613ff2565b60405180610100016040528060008152602001600081526020016000815260200160006004811115613fd057613fd06143d4565b8152602001600081526020016000815260200160008152602001600081525090565b5b808211156140075760008155600101613ff3565b5090565b60006020828403121561401d57600080fd5b5035919050565b634e487b7160e01b600052604160045260246000fd5b60405160a0810167ffffffffffffffff8111828210171561405d5761405d614024565b60405290565b604051610180810167ffffffffffffffff8111828210171561405d5761405d614024565b60405160c0810167ffffffffffffffff8111828210171561405d5761405d614024565b604051610120810167ffffffffffffffff8111828210171561405d5761405d614024565b604051610160810167ffffffffffffffff8111828210171561405d5761405d614024565b604051610140810167ffffffffffffffff8111828210171561405d5761405d614024565b604051601f8201601f1916810167ffffffffffffffff8111828210171561413f5761413f614024565b604052919050565b600060a0828403121561415957600080fd5b61416161403a565b82358152602083013560208201526040830135604082015260608301356060820152608083013560808201528091505092915050565b600061018082840312156141aa57600080fd5b6141b2614063565b823581526020830135602082015260408301356040820152606083013560608201526080830135608082015260a083013560a082015260c083013560c082015260e083013560e08201526101008084013581830152506101208084013581830152506101408084013581830152506101608084013581830152508091505092915050565b6001600160a01b038116811461128457600080fd5b6000806000806080858703121561426157600080fd5b843561426c81614236565b9350602085013561427c81614236565b9250604085013561428c81614236565b9150606085013561429c81614236565b939692955090935050565b6000806000606084860312156142bc57600080fd5b833592506020840135915060408401356142d581614236565b809150509250925092565b6000602082840312156142f257600080fd5b8135610d3b81614236565b6000806040838503121561431057600080fd5b82359150602083013561432281614236565b809150509250929050565b6005811061128457600080fd5b6006811061128457600080fd5b600080600083850361010081121561435e57600080fd5b60c081121561436c57600080fd5b50614375614087565b843581526020850135602082015260408501356143918161432d565b80604083015250606085013560608201526080850135608082015260a08501356143ba8161433a565b60a08201529560c0850135955060e0909401359392505050565b634e487b7160e01b600052602160045260246000fd5b6005811061128457634e487b7160e01b600052602160045260246000fd5b60208101614415836143ea565b91905290565b634e487b7160e01b600052603260045260246000fd5b634e487b7160e01b600052601160045260246000fd5b600181815b8085111561448257816000190482111561446857614468614431565b8085161561447557918102915b93841c939080029061444c565b509250929050565b600082614499575060016120bb565b816144a6575060006120bb565b81600181146144bc57600281146144c6576144e2565b60019150506120bb565b60ff8411156144d7576144d7614431565b50506001821b6120bb565b5060208310610133831016604e8410600b8410161715614505575081810a6120bb565b61450f8383614447565b806000190482111561452357614523614431565b029392505050565b6000610d3b838361448a565b600080831283600160ff1b0183128115161561455557614555614431565b837f7fffffffffffffffffffffffffffffffffffffffffffffffffffffffffffffff01831381161561458957614589614431565b50500390565b600082198211156145a2576145a2614431565b500190565b6000828210156145b9576145b9614431565b500390565b80516cffffffffffffffffffffffffff811681146136fa57600080fd5b80516fffffffffffffffffffffffffffffffff811681146136fa57600080fd5b805180151581146136fa57600080fd5b600080600080600080600080610100898b03121561462857600080fd5b885161ffff8116811461463a57600080fd5b975061464860208a016145be565b965061465660408a016145be565b95506060890151945061466b60808a016145db565b935061467960a08a016145db565b925060c0890151915061468e60e08a016145fb565b90509295985092959890939650565b6000602082840312156146af57600080fd5b610d3b826145fb565b80516136fa81614236565b6000602082840312156146d557600080fd5b8151610d3b81614236565b6000602082840312156146f257600080fd5b5051919050565b600060001982141561470d5761470d614431565b5060010190565b6000610120828403121561472757600080fd5b61472f6140aa565b9050815181526020820151602082015260408201516040820152606082015160608201526080820151608082015260a082015160a082015260c082015160c082015260e082015160e082015261010080830151818301525092915050565b600067ffffffffffffffff8211156147a7576147a7614024565b5060051b60200190565b600060a082840312156147c357600080fd5b6147cb61403a565b90508151815260208083015181830152604083015160408301526147f1606084016145fb565b6060830152608083015167ffffffffffffffff81111561481057600080fd5b8301601f8101851361482157600080fd5b805161483461482f8261478d565b614116565b81815260059190911b8201830190838101908783111561485357600080fd5b928401925b8284101561487157835182529284019290840190614858565b6080860152509295945050505050565b600080610140838503121561489557600080fd5b61489f8484614714565b915061012083015167ffffffffffffffff8111156148bc57600080fd5b6148c8858286016147b1565b9150509250929050565b600080604083850312156148e557600080fd5b505080516020909101519092909150565b6000600160ff1b82141561490c5761490c614431565b5060000390565b600060a0828403121561492557600080fd5b61492d61403a565b82518152602083015160208201526040830151604082015260608301516060820152608083015160808201528091505092915050565b6020808252825182820181905260009190848201906040850190845b8181101561499b5783518352928401929184019160010161497f565b50909695505050505050565b600060208083850312156149ba57600080fd5b825167ffffffffffffffff8111156149d157600080fd5b8301601f810185136149e257600080fd5b80516149f061482f8261478d565b81815260c09182028301840191848201919088841115614a0f57600080fd5b938501935b83851015614a895780858a031215614a2c5760008081fd5b614a34614087565b855181528686015187820152604080870151614a4f8161432d565b90820152606086810151908201526080808701519082015260a080870151614a768161433a565b9082015283529384019391850191614a14565b50979650505050505050565b6000816000190483118215151615614aaf57614aaf614431565b500290565b600082614ad157634e487b7160e01b600052601260045260246000fd5b500490565b600060208284031215614ae857600080fd5b815167ffffffffffffffff811115614aff57600080fd5b614b0b848285016147b1565b949350505050565b60006101608284031215614b2657600080fd5b614b2e6140ce565b614b37836146b8565b8152614b45602084016146b8565b6020820152614b56604084016146b8565b6040820152614b67606084016146b8565b6060820152614b78608084016146b8565b6080820152614b8960a084016146b8565b60a0820152614b9a60c084016146b8565b60c0820152614bab60e084016146b8565b60e0820152610100614bbe8185016146b8565b90820152610120614bd08482016146b8565b90820152610140614be28482016146b8565b908201529392505050565b60006101408284031215614c0057600080fd5b614c086140f2565b825181526020830151602082015260408301516040820152606083015160608201526080830151608082015260a083015160a082015260c083015160c082015260e083015160e08201526101008084015181830152506101208084015181830152508091505092915050565b60a08101614c81876143ea565b95815260208101949094526040840192909252606083015260809091015290565b6000610100820190508251825260208301516020830152604083015160408301526060830151614cd1816143ea565b806060840152506080830151608083015260a083015160a083015260c083015160c083015260e083015160e083015292915050565b600060608284031215614d1857600080fd5b6040516060810181811067ffffffffffffffff82111715614d3b57614d3b614024565b80604052508251815260208301516020820152604083015160408201528091505092915050565b60006101208284031215614d7557600080fd5b610d3b8383614714565b60006101808284031215614d9257600080fd5b614d9a614063565b825181526020830151602082015260408301516040820152606083015160608201526080830151608082015260a083015160a082015260c083015160c082015260e083015160e0820152610100808401518183015250610120808401518183015250610140808401518183015250610160614be28185016145fb56fea26469706673582212209caa9bf23dbba5652e9036ea01bd0da8675b2b2d11708304629e93cbea716d6e64736f6c63430008090033",
  "deployedBytecode": "0x608060405234801561001057600080fd5b506004361061025c5760003560e01c80638da5cb5b11610145578063cdf456e1116100bd578063f2fde38b1161008c578063fdf262b711610071578063fdf262b7146105be578063ffcd00ac146105d1578063ffd9eedb146105e457600080fd5b8063f2fde38b14610584578063fbfa77cf1461059757600080fd5b8063cdf456e11461052b578063d4aaa9eb1461053e578063d8fca1ac1461055e578063ee9e0e6a1461057157600080fd5b8063ae74fc4d11610114578063bb4a9f88116100f9578063bb4a9f88146104f2578063bc4e440514610505578063cae1c5821461051857600080fd5b8063ae74fc4d146104cc578063b5ca94a0146104df57600080fd5b80638da5cb5b14610467578063a65be9ba14610478578063a8c379c21461048b578063aabaecd6146104b957600080fd5b80635cf03549116101d85780637083a904116101a75780637dd0db1b1161018c5780637dd0db1b1461043957806383cea5421461044c578063870dcaeb1461045457600080fd5b80637083a9041461041e578063715018a61461043157600080fd5b80635cf03549146103dd578063619a84cc146103f0578063621318cd146103f8578063665a11ca1461040b57600080fd5b806338b740541161022f57806354f1e01f1161021457806354f1e01f1461038d57806357949815146103b55780635a3c76ab146103c857600080fd5b806338b7405414610357578063478620c01461036a57600080fd5b806303c4d3d614610261578063131b2f861461027d5780632a37ad5a1461029d5780632bab754b1461032c575b600080fd5b61026a601e5481565b6040519081526020015b60405180910390f35b61026a61028b36600461400b565b600f6020526000908152604090205481565b601254601354601454601554601654601754601854601954601a54601b54601c54601d546102d39b9a999897969594939291908c565b604080519c8d5260208d019b909b52998b019890985260608a0196909652608089019490945260a088019290925260c087015260e086015261010085015261012084015261014083015261016082015261018001610274565b60045461033f906001600160a01b031681565b6040516001600160a01b039091168152602001610274565b60095461033f906001600160a01b031681565b61037d610378366004614147565b610618565b6040519015158152602001610274565b6103a061039b366004614147565b610705565b60408051928352602083019190915201610274565b600d5461033f906001600160a01b031681565b6103db6103d6366004614197565b6107ff565b005b6103db6103eb36600461424b565b6109d2565b6103db610bd8565b61037d61040636600461400b565b610d18565b60055461033f906001600160a01b031681565b6103db61042c3660046142a7565b610d42565b6103db611101565b6103db6104473660046142e0565b611167565b6103db611287565b60065461033f906001600160a01b031681565b6000546001600160a01b031661033f565b60075461033f906001600160a01b031681565b61049e6104993660046142fd565b6112fc565b60408051938452602084019290925290820152606001610274565b600e5461033f906001600160a01b031681565b6103db6104da36600461400b565b611608565b6103db6104ed36600461424b565b6116dd565b60035461033f906001600160a01b031681565b61026a61051336600461400b565b611b9c565b60085461033f906001600160a01b031681565b600b5461033f906001600160a01b031681565b61026a61054c36600461400b565b60116020526000908152604090205481565b600c5461033f906001600160a01b031681565b60015461033f906001600160a01b031681565b6103db6105923660046142e0565b611bbd565b61033f7f000000000000000000000000000000000000000000000000000000000000000081565b600a5461033f906001600160a01b031681565b61026a6105df366004614347565b611c9c565b61060b7f000000000000000000000000000000000000000000000000000000000000000081565b6040516102749190614408565b60008160200151601e541461062f57506000919050565b600061063e8360000151611d15565b9050600061064b82611d5c565b60008151811061065d5761065d61441b565b60200260200101519050600061067283611eb0565b6000815181106106845761068461441b565b60200260200101519050600061069861201e565b6106b7576106a86012600a61452b565b6106b29083614537565b6106b9565b815b905060006106d6826012600201546106d19190614537565b6120a1565b60165490915084108015906106ed57506017548411155b80156106fa575060155481105b979650505050505050565b6018546000908190816107166120c1565b8551600090815260116020526040812054919250908190156107815786516000908152601160205260408120546107559061075090611d15565b6121a9565b6000815181106107675761076761441b565b602002602001015190508060800151915080606001519250505b60006107a688604001518960200151866000015188876107a1919061458f565b612428565b905060006107c76012600b01546107c18b6040015189612492565b906124b5565b6107d1908461458f565b90506107e66107e083836124d7565b846124d7565b96506107f283886145a7565b9750505050505050915091565b6000546001600160a01b0316331461085e5760405162461bcd60e51b815260206004820181905260248201527f4f776e61626c653a2063616c6c6572206973206e6f7420746865206f776e657260448201526064015b60405180910390fd5b60007f00000000000000000000000000000000000000000000000000000000000000006001600160a01b0316632728f3336040518163ffffffff1660e01b81526004016101006040518083038186803b1580156108ba57600080fd5b505afa1580156108ce573d6000803e3d6000fd5b505050506040513d601f19601f820116820180604052508101906108f2919061460b565b975050505050505050801561096f5760405162461bcd60e51b815260206004820152602960248201527f63616e6e6f74206368616e676520737472617465677920696620726f756e642060448201527f69732061637469766500000000000000000000000000000000000000000000006064820152608401610855565b508051601255602081015160135560408101516014556060810151601555608081015160165560a081015160175560c081015160185560e0810151601955610100810151601a55610120810151601b55610140810151601c556101600151601d55565b6000546001600160a01b03163314610a2c5760405162461bcd60e51b815260206004820181905260248201527f4f776e61626c653a2063616c6c6572206973206e6f7420746865206f776e65726044820152606401610855565b610a38848484846116dd565b600a5460405163095ea7b360e01b81526001600160a01b037f00000000000000000000000000000000000000000000000000000000000000008116600483015260001960248301529091169063095ea7b390604401602060405180830381600087803b158015610aa757600080fd5b505af1158015610abb573d6000803e3d6000fd5b505050506040513d601f19601f82011682018060405250810190610adf919061469d565b50600b5460405163095ea7b360e01b81526001600160a01b037f00000000000000000000000000000000000000000000000000000000000000008116600483015260001960248301529091169063095ea7b390604401602060405180830381600087803b158015610b4f57600080fd5b505af1158015610b63573d6000803e3d6000fd5b505050506040513d601f19601f82011682018060405250810190610b87919061469d565b50610b906124ed565b610ba557600a546001600160a01b0316610bb2565b600b546001600160a01b03165b600e80546001600160a01b0319166001600160a01b039290921691909117905550505050565b6000546001600160a01b03163314610c325760405162461bcd60e51b815260206004820181905260248201527f4f776e61626c653a2063616c6c6572206973206e6f7420746865206f776e65726044820152606401610855565b600260009054906101000a90046001600160a01b03166001600160a01b0316633535c97b6040518163ffffffff1660e01b815260040160206040518083038186803b158015610c8057600080fd5b505afa158015610c94573d6000803e3d6000fd5b505050506040513d601f19601f82011682018060405250810190610cb891906146c3565b60025460405163447fbc6360e01b81526001600160a01b03918216600482015291169063447fbc6390602401600060405180830381600087803b158015610cfe57600080fd5b505af1158015610d12573d6000803e3d6000fd5b50505050565b600080610d2483612534565b6012549091508110801590610d3b57506013548111155b9392505050565b336001600160a01b037f00000000000000000000000000000000000000000000000000000000000000001614610da75760405162461bcd60e51b815260206004820152600a6024820152691bdb9b1e4815985d5b1d60b21b6044820152606401610855565b6000610db561075085611d15565b600081518110610dc757610dc761441b565b602002602001015190506000610de8610de38360200151611d15565b612590565b600081518110610dfa57610dfa61441b565b602002602001015190508460116000846020015181526020019081526020016000205414610e6a5760405162461bcd60e51b815260206004820152601260248201527f696e76616c696420706f736974696f6e496400000000000000000000000000006044820152606401610855565b610e7d8282604001518360200151611c9c565b841115610ef25760405162461bcd60e51b815260206004820152602360248201527f616d6f756e74206578636565647320616c6c6f77656420636c6f736520616d6f60448201527f756e7400000000000000000000000000000000000000000000000000000000006064820152608401610855565b6000610f0982601260050154601260060154612736565b9050610f1983866000848861278f565b610f216124ed565b1561105157600b546040516370a0823160e01b81523060048201526000916001600160a01b0316906370a082319060240160206040518083038186803b158015610f6a57600080fd5b505afa158015610f7e573d6000803e3d6000fd5b505050506040513d601f19601f82011682018060405250810190610fa291906146e0565b600b5460405163a9059cbb60e01b81526001600160a01b037f0000000000000000000000000000000000000000000000000000000000000000811660048301526024820184905292935091169063a9059cbb90604401602060405180830381600087803b15801561101257600080fd5b505af1158015611026573d6000803e3d6000fd5b505050506040513d601f19601f8201168201806040525081019061104a919061469d565b50506110f9565b600a5460405163a9059cbb60e01b81526001600160a01b037f000000000000000000000000000000000000000000000000000000000000000081166004830152602482018890529091169063a9059cbb90604401602060405180830381600087803b1580156110bf57600080fd5b505af11580156110d3573d6000803e3d6000fd5b505050506040513d601f19601f820116820180604052508101906110f7919061469d565b505b505050505050565b6000546001600160a01b0316331461115b5760405162461bcd60e51b815260206004820181905260248201527f4f776e61626c653a2063616c6c6572206973206e6f7420746865206f776e65726044820152606401610855565b61116560006128c3565b565b336001600160a01b037f000000000000000000000000000000000000000000000000000000000000000016146111cc5760405162461bcd60e51b815260206004820152600a6024820152691bdb9b1e4815985d5b1d60b21b6044820152606401610855565b60005b60105481101561127b576000601082815481106111ee576111ee61441b565b90600052602060002001549050600061121c6107506011600085815260200190815260200160002054611d15565b60008151811061122e5761122e61441b565b6020026020010151905061124c81826060015160006000198861278f565b506000908152601160209081526040808320839055600f90915281205580611273816146f9565b9150506111cf565b50611284612913565b50565b336001600160a01b037f000000000000000000000000000000000000000000000000000000000000000016146112ec5760405162461bcd60e51b815260206004820152600a6024820152691bdb9b1e4815985d5b1d60b21b6044820152606401610855565b6112f4612913565b611165612c98565b60008080336001600160a01b037f000000000000000000000000000000000000000000000000000000000000000016146113655760405162461bcd60e51b815260206004820152600a6024820152691bdb9b1e4815985d5b1d60b21b6044820152606401610855565b6019546000868152600f602052604090205442916113829161458f565b11156113d05760405162461bcd60e51b815260206004820152601c60248201527f6d696e2074696d6520696e74657276616c206e6f7420706173736564000000006044820152606401610855565b6113d985612dbf565b6114255760405162461bcd60e51b815260206004820152601560248201527f766f6c2076617269616e636520657863656564656400000000000000000000006044820152606401610855565b6000611433610de387611d15565b6000815181106114455761144561441b565b6020026020010151905061145881610618565b6114a45760405162461bcd60e51b815260206004820152600e60248201527f696e76616c696420737472696b650000000000000000000000000000000000006044820152606401610855565b60006114af82610705565b600e546040517f23b872dd0000000000000000000000000000000000000000000000000000000081526001600160a01b037f0000000000000000000000000000000000000000000000000000000000000000811660048301523060248301526044820185905293965091935091909116906323b872dd90606401602060405180830381600087803b15801561154357600080fd5b505af1158015611557573d6000803e3d6000fd5b505050506040513d601f19601f8201168201806040525081019061157b919061469d565b6115ed5760405162461bcd60e51b815260206004820152602560248201527f636f6c6c61746572616c207472616e736665722066726f6d207661756c74206660448201527f61696c65640000000000000000000000000000000000000000000000000000006064820152608401610855565b6115f8828288612e32565b9098909750929550919350505050565b336001600160a01b037f0000000000000000000000000000000000000000000000000000000000000000161461166d5760405162461bcd60e51b815260206004820152600a6024820152691bdb9b1e4815985d5b1d60b21b6044820152606401610855565b600061167882612fa7565b90506116878160200151610d18565b6116d35760405162461bcd60e51b815260206004820152600d60248201527f696e76616c696420626f617264000000000000000000000000000000000000006044820152606401610855565b60200151601e5550565b6000546001600160a01b031633146117375760405162461bcd60e51b815260206004820181905260248201527f4f776e61626c653a2063616c6c6572206973206e6f7420746865206f776e65726044820152606401610855565b600a546001600160a01b0316156117d257600a5460035460405163095ea7b360e01b81526001600160a01b0391821660048201526000602482015291169063095ea7b390604401602060405180830381600087803b15801561179857600080fd5b505af11580156117ac573d6000803e3d6000fd5b505050506040513d601f19601f820116820180604052508101906117d0919061469d565b505b600b546001600160a01b03161561186d57600b5460035460405163095ea7b360e01b81526001600160a01b0391821660048201526000602482015291169063095ea7b390604401602060405180830381600087803b15801561183357600080fd5b505af1158015611847573d6000803e3d6000fd5b505050506040513d601f19601f8201168201806040525081019061186b919061469d565b505b600380546001600160a01b038581166001600160a01b0319928316179092556001805492871692909116821790556040517f7f2e06000000000000000000000000000000000000000000000000000000000081527f53594e5448455449585f414441505445520000000000000000000000000000006004820152637f2e06009060240160206040518083038186803b15801561190857600080fd5b505afa15801561191c573d6000803e3d6000fd5b505050506040513d601f19601f8201168201806040525081019061194091906146c3565b600280546001600160a01b0319166001600160a01b039290921691909117905561196861309f565b600c80546001600160a01b038085166001600160a01b031992831617909255600d80548484169216919091179055600254604080517f3535c97b00000000000000000000000000000000000000000000000000000000815290519190921691633535c97b916004808301926020929190829003018186803b1580156119ec57600080fd5b505afa158015611a00573d6000803e3d6000fd5b505050506040513d601f19601f82011682018060405250810190611a2491906146c3565b60025460405163447fbc6360e01b81526001600160a01b03918216600482015291169063447fbc6390602401600060405180830381600087803b158015611a6a57600080fd5b505af1158015611a7e573d6000803e3d6000fd5b5050600a5460035460405163095ea7b360e01b81526001600160a01b03918216600482015260001960248201529116925063095ea7b39150604401602060405180830381600087803b158015611ad357600080fd5b505af1158015611ae7573d6000803e3d6000fd5b505050506040513d601f19601f82011682018060405250810190611b0b919061469d565b50600b5460035460405163095ea7b360e01b81526001600160a01b039182166004820152600019602482015291169063095ea7b390604401602060405180830381600087803b158015611b5d57600080fd5b505af1158015611b71573d6000803e3d6000fd5b505050506040513d601f19601f82011682018060405250810190611b95919061469d565b5050505050565b60108181548110611bac57600080fd5b600091825260209091200154905081565b6000546001600160a01b03163314611c175760405162461bcd60e51b815260206004820181905260248201527f4f776e61626c653a2063616c6c6572206973206e6f7420746865206f776e65726044820152606401610855565b6001600160a01b038116611c935760405162461bcd60e51b815260206004820152602660248201527f4f776e61626c653a206e6577206f776e657220697320746865207a65726f206160448201527f64647265737300000000000000000000000000000000000000000000000000006064820152608401610855565b611284816128c3565b600080611ca76120c1565b90506000611cc385858460000151670de0b6b3a7640000612428565b9050611cdc8660600151826124b590919063ffffffff16565b866080015110611ced576000611d0b565b6080860151611cfc90826131ee565b8660600151611d0b91906145a7565b9695505050505050565b604080516001808252818301909252606091602080830190803683370190505090508181600081518110611d4b57611d4b61441b565b602002602001018181525050919050565b80516060908067ffffffffffffffff811115611d7a57611d7a614024565b604051908082528060200260200182016040528015611da3578160200160208202803683370190505b50915060005b81811015611ea957600354845160009182916001600160a01b039091169063c4c4a0d090889086908110611ddf57611ddf61441b565b60200260200101516040518263ffffffff1660e01b8152600401611e0591815260200190565b60006040518083038186803b158015611e1d57600080fd5b505afa158015611e31573d6000803e3d6000fd5b505050506040513d6000823e601f3d908101601f19168201604052611e599190810190614881565b91509150611e78826040015182604001516124b590919063ffffffff16565b858481518110611e8a57611e8a61441b565b602002602001018181525050505080611ea2906146f9565b9050611da9565b5050919050565b80516060908067ffffffffffffffff811115611ece57611ece614024565b604051908082528060200260200182016040528015611ef7578160200160208202803683370190505b50915060005b81811015611ea9576000611f29858381518110611f1c57611f1c61441b565b6020026020010151613207565b604080517f8d31f3aa0000000000000000000000000000000000000000000000000000000081528251600482015260208301516024820152908201516044820152606082015160648201526080820151608482015290915073__$c0a17acec7091fec39628aa0eae1394872$__90638d31f3aa9060a401604080518083038186803b158015611fb757600080fd5b505af4158015611fcb573d6000803e3d6000fd5b505050506040513d601f19601f82011682018060405250810190611fef91906148d2565b508483815181106120025761200261441b565b602090810291909101015250612017816146f9565b9050611efd565b600060047f00000000000000000000000000000000000000000000000000000000000000006004811115612054576120546143d4565b1480612091575060017f0000000000000000000000000000000000000000000000000000000000000000600481111561208f5761208f6143d4565b145b61209b5750600190565b50600090565b6000808212156120b9576120b4826148f6565b6120bb565b815b92915050565b6120e560405180606001604052806000815260200160008152602001600081525090565b6002546003546040517fcfbe7f440000000000000000000000000000000000000000000000000000000081526001600160a01b039182166004820152600092919091169063cfbe7f449060240160a06040518083038186803b15801561214a57600080fd5b505afa15801561215e573d6000803e3d6000fd5b505050506040513d601f19601f820116820180604052508101906121829190614913565b60408051606080820183528351825283015160208201526080909201519082015292915050565b600480546040517f23d354770000000000000000000000000000000000000000000000000000000081526060926000926001600160a01b0316916323d35477916121f591879101614963565b60006040518083038186803b15801561220d57600080fd5b505afa158015612221573d6000803e3d6000fd5b505050506040513d6000823e601f3d908101601f1916820160405261224991908101906149a7565b805190915060008167ffffffffffffffff81111561226957612269614024565b6040519080825280602002602001820160405280156122a257816020015b61228f613f27565b8152602001906001900390816122875790505b50905060005b8281101561241f576040518060c001604052808583815181106122cd576122cd61441b565b60200260200101516000015181526020018583815181106122f0576122f061441b565b60200260200101516020015181526020018583815181106123135761231361441b565b6020026020010151604001516004811115612330576123306143d4565b6004811115612341576123416143d4565b6004811115612352576123526143d4565b81526020018583815181106123695761236961441b565b602002602001015160600151815260200185838151811061238c5761238c61441b565b60200260200101516080015181526020018583815181106123af576123af61441b565b602002602001015160a0015160058111156123cc576123cc6143d4565b60058111156123dd576123dd6143d4565b60058111156123ee576123ee6143d4565b8152508282815181106124035761240361441b565b602002602001018190525080612418906146f9565b90506122a8565b50949350505050565b6000806124587f00000000000000000000000000000000000000000000000000000000000000008787878761345b565b601c5490915060009061246c9083906124b5565b9050600061247a8886612492565b90506124868282613506565b98975050505050505050565b600061249c6124ed565b6124af576124aa82846124b5565b610d3b565b50919050565b60006124c36012600a61452b565b6124cd8385614a95565b610d3b9190614ab4565b60008183116124e65781610d3b565b5090919050565b600060027f00000000000000000000000000000000000000000000000000000000000000006004811115612523576125236143d4565b1461252e5750600090565b50600190565b6000814211156125865760405162461bcd60e51b815260206004820152601160248201527f74696d657374616d7020657870697265640000000000000000000000000000006044820152606401610855565b6120bb42836145a7565b80516060908067ffffffffffffffff8111156125ae576125ae614024565b60405190808252806020026020018201604052801561261157816020015b6125fe6040518060a0016040528060008152602001600081526020016000815260200160008152602001600081525090565b8152602001906001900390816125cc5790505b50915060005b81811015611ea957600354845160009182916001600160a01b039091169063c4c4a0d09088908690811061264d5761264d61441b565b60200260200101516040518263ffffffff1660e01b815260040161267391815260200190565b60006040518083038186803b15801561268b57600080fd5b505afa15801561269f573d6000803e3d6000fd5b505050506040513d6000823e601f3d908101601f191682016040526126c79190810190614881565b915091506040518060a001604052808360000151815260200182602001518152602001836020015181526020018360400151815260200182604001518152508584815181106127185761271861441b565b602002602001018190525050508061272f906146f9565b9050612617565b6000806127416120c1565b90506000806127666127568860200151612534565b8785600001518a60400151613515565b9150915061277261201e565b6127855761278081866124b5565b6106fa565b6106fa82866124b5565b6000848660600151146127a65785608001516127a9565b60005b905060006040518061012001604052808860200151815260200188600001518152602001600381526020017f00000000000000000000000000000000000000000000000000000000000000006004811115612806576128066143d4565b8152602001878152602001838152602001868152602001858152602001846001600160a01b03168152509050600061283d8261369f565b905084816020015111156128b95760405162461bcd60e51b815260206004820152602a60248201527f7072656d69756d20706169642069732061626f7665206d61782065787065637460448201527f6564207072656d69756d000000000000000000000000000000000000000000006064820152608401610855565b5050505050505050565b600080546001600160a01b038381166001600160a01b0319831681178455604051919092169283917f8be0079c531659141344cd1fd0a4f28419497f9722a3daafe3b4186f6b6457e09190a35050565b600061291d6120c1565b600a546040516370a0823160e01b81523060048201529192506000916001600160a01b03909116906370a082319060240160206040518083038186803b15801561296657600080fd5b505afa15801561297a573d6000803e3d6000fd5b505050506040513d601f19601f8201168201806040525081019061299e91906146e0565b90506129a86124ed565b15612b9657600b546040516370a0823160e01b81523060048201526000916001600160a01b0316906370a082319060240160206040518083038186803b1580156129f157600080fd5b505afa158015612a05573d6000803e3d6000fd5b505050506040513d601f19601f82011682018060405250810190612a2991906146e0565b6040840151909150600090612a5b90612a446012600a61452b565b612a4e91906145a7565b85516107c19086906131ee565b90506000612a6984836136ff565b600b549091506001600160a01b031663a9059cbb7f0000000000000000000000000000000000000000000000000000000000000000612aa8848761458f565b6040517fffffffff0000000000000000000000000000000000000000000000000000000060e085901b1681526001600160a01b0390921660048301526024820152604401602060405180830381600087803b158015612b0657600080fd5b505af1158015612b1a573d6000803e3d6000fd5b505050506040513d601f19601f82011682018060405250810190612b3e919061469d565b611b955760405162461bcd60e51b8152602060048201526024808201527f6661696c656420746f2072657475726e2066756e64732066726f6d20737472616044820152637465677960e01b6064820152608401610855565b600a5460405163a9059cbb60e01b81526001600160a01b037f000000000000000000000000000000000000000000000000000000000000000081166004830152602482018490529091169063a9059cbb90604401602060405180830381600087803b158015612c0457600080fd5b505af1158015612c18573d6000803e3d6000fd5b505050506040513d601f19601f82011682018060405250810190612c3c919061469d565b612c945760405162461bcd60e51b8152602060048201526024808201527f6661696c656420746f2072657475726e2066756e64732066726f6d20737472616044820152637465677960e01b6064820152608401610855565b5050565b601054156111655760005b601054811015612db257600060108281548110612cc257612cc261441b565b906000526020600020015490506000612cf06107506011600085815260200190815260200160002054611d15565b600081518110612d0257612d0261441b565b6020026020010151905060016005811115612d1f57612d1f6143d4565b8160a001516005811115612d3557612d356143d4565b1415612d835760405162461bcd60e51b815260206004820152601c60248201527f63616e6e6f7420636c6561722061637469766520706f736974696f6e000000006044820152606401610855565b506000908152601160209081526040808320839055600f90915281205580612daa816146f9565b915050612ca3565b5061116560106000613f7e565b600080612dd1836012600901546137f1565b90506000612de6612de185611d15565b611d5c565b600081518110612df857612df861441b565b60200260200101519050600081831015612e1b57612e1683836145a7565b612e25565b612e2582846145a7565b601a541195945050505050565b6000806000612e4c86601260040154601260060154612736565b90506000612ef560405180610120016040528089600001518152602001601160008b600001518152602001908152602001600020548152602001600381526020017f00000000000000000000000000000000000000000000000000000000000000006004811115612ebf57612ebf6143d4565b815260200160126006015481526020018881526020018481526020016000198152602001876001600160a01b031681525061388e565b87516000908152600f6020526040902042905587518151919250612f1891613a3d565b8181602001511015612f925760405162461bcd60e51b815260206004820152602e60248201527f7072656d69756d2072656365697665642069732062656c6f77206d696e20657860448201527f706563746564207072656d69756d0000000000000000000000000000000000006064820152608401610855565b80516020909101519097909650945050505050565b612fd26040518060800160405280600081526020016000815260200160008152602001606081525090565b6003546040517f16a54f50000000000000000000000000000000000000000000000000000000008152600481018490526000916001600160a01b0316906316a54f509060240160006040518083038186803b15801561303057600080fd5b505afa158015613044573d6000803e3d6000fd5b505050506040513d6000823e601f3d908101601f1916820160405261306c9190810190614ad6565b60408051608080820183528351825260208085015190830152828401519282019290925291015160608201529392505050565b6001546003546040517fc4158a510000000000000000000000000000000000000000000000000000000081526001600160a01b039182166004820152600092919091169063c4158a51906024016101606040518083038186803b15801561310557600080fd5b505afa158015613119573d6000803e3d6000fd5b505050506040513d601f19601f8201168201806040525081019061313d9190614b13565b8051600580546001600160a01b03199081166001600160a01b03938416179091556040830151600980548316918416919091179055608083015160088054831691841691909117905560a083015160048054831691841691909117905560e0830151600680548316918416919091179055610100830151600780548316918416919091179055610120830151600a8054831691841691909117905561014090920151600b8054909316911617905550565b6000816131fd6012600a61452b565b6124cd9085614a95565b6132396040518060a0016040528060008152602001600081526020016000815260200160008152602001600081525090565b6003546040517fc4c4a0d00000000000000000000000000000000000000000000000000000000081526004810184905260009182916001600160a01b039091169063c4c4a0d09060240160006040518083038186803b15801561329b57600080fd5b505afa1580156132af573d6000803e3d6000fd5b505050506040513d6000823e601f3d908101601f191682016040526132d79190810190614881565b915091506040518060a001604052804283602001516132f691906145a7565b8152602001613316846040015184604001516124b590919063ffffffff16565b81526002546003546040517f7dbae6480000000000000000000000000000000000000000000000000000000081526001600160a01b039182166004820152602090930192911690637dbae6489060240160206040518083038186803b15801561337e57600080fd5b505afa158015613392573d6000803e3d6000fd5b505050506040513d601f19601f820116820180604052508101906133b691906146e0565b815260200183602001518152602001600960009054906101000a90046001600160a01b03166001600160a01b031663f369f2ac6040518163ffffffff1660e01b81526004016101406040518083038186803b15801561341457600080fd5b505afa158015613428573d6000803e3d6000fd5b505050506040513d601f19601f8201168201806040525081019061344c9190614bed565b61012001519052949350505050565b6009546000906001600160a01b031663a57ce682876004811115613481576134816143d4565b6004811115613492576134926143d4565b878787876040518663ffffffff1660e01b81526004016134b6959493929190614c74565b60206040518083038186803b1580156134ce57600080fd5b505afa1580156134e2573d6000803e3d6000fd5b505050506040513d601f19601f82011682018060405250810190611d0b91906146e0565b60008183106124e65781610d3b565b60008060006040518060a00160405280888152602001878152602001868152602001858152602001600960009054906101000a90046001600160a01b03166001600160a01b031663f369f2ac6040518163ffffffff1660e01b81526004016101406040518083038186803b15801561358c57600080fd5b505afa1580156135a0573d6000803e3d6000fd5b505050506040513d601f19601f820116820180604052508101906135c49190614bed565b61012001519052604080517fb6e62e590000000000000000000000000000000000000000000000000000000081528251600482015260208301516024820152908201516044820152606082015160648201526080820151608482015290915073__$c0a17acec7091fec39628aa0eae1394872$__9063b6e62e599060a401604080518083038186803b15801561365957600080fd5b505af415801561366d573d6000803e3d6000fd5b505050506040513d601f19601f8201168201806040525081019061369191906148d2565b909890975095505050505050565b6136c360405180606001604052806000815260200160008152602001600081525090565b81516136ce90613a93565b1580156136e3575081516136e190613b44565b155b156136f1576120bb82613bdc565b6120bb82613c1d565b919050565b6002546003546040517fae58cf0b0000000000000000000000000000000000000000000000000000000081526001600160a01b03918216600482015260248101859052600092919091169063ae58cf0b90604401602060405180830381600087803b15801561376d57600080fd5b505af1158015613781573d6000803e3d6000fd5b505050506040513d601f19601f820116820180604052508101906137a591906146e0565b9050818110156120bb576040517ff125dbc40000000000000000000000000000000000000000000000000000000081523060048201526024810183905260448101829052606401610855565b6007546040517f39a427f100000000000000000000000000000000000000000000000000000000815260048101849052602481018390526000916001600160a01b0316906339a427f19060440160206040518083038186803b15801561385657600080fd5b505afa15801561386a573d6000803e3d6000fd5b505050506040513d601f19601f82011682018060405250810190610d3b91906146e0565b6138b260405180606001604052806000815260200160008152602001600081525090565b6003546000906001600160a01b03166237f2bc6138ce85613c5a565b6040518263ffffffff1660e01b81526004016138ea9190614ca2565b606060405180830381600087803b15801561390457600080fd5b505af1158015613918573d6000803e3d6000fd5b505050506040513d601f19601f8201168201806040525081019061393c9190614d06565b6101008401519091506001600160a01b031615613a1757600d546003546101008501516001600160a01b039283169263a4ed578192169061397c87613c5a565b60800151602086015160408088015190517fffffffff0000000000000000000000000000000000000000000000000000000060e088901b1681526001600160a01b03958616600482015294909316602485015260448401919091526064830152608482015260a401600060405180830381600087803b1580156139fe57600080fd5b505af1158015613a12573d6000803e3d6000fd5b505050505b604080516060810182528251815260208084015190820152918101519082015292915050565b600082815260116020526040902054612c94576000828152601160205260408120919091556010805460018101825591527f1b6847dc741a1b0cd08d278845f9d819d87b734759afb55fe2de5cb82a9ae6720155565b600080613a9e613cf6565b60408051600180825281830190925291925060009190602080830190803683370190505090508381600081518110613ad857613ad861441b565b6020026020010181815250506000613aef82611eb0565b600081518110613b0157613b0161441b565b602002602001015190508260600151601260ff16600a613b21919061452b565b613b2b9190614537565b811380613b3b5750826060015181125b95945050505050565b600080613b4f613cf6565b60408051600180825281830190925291925060009190602080830190803683370190505090508381600081518110613b8957613b8961441b565b6020026020010181815250506000613ba082612590565b600081518110613bb257613bb261441b565b602002602001015190508260800151428260200151613bd191906145a7565b111595945050505050565b613c0060405180606001604052806000815260200160008152602001600081525090565b6003546000906001600160a01b03166392b4632c6138ce85613c5a565b613c4160405180606001604052806000815260200160008152602001600081525090565b6003546000906001600160a01b031663e4e83e3d6138ce855b613c62613f9c565b60405180610100016040528083600001518152602001836020015181526020018360400151815260200183606001516004811115613ca257613ca26143d4565b6004811115613cb357613cb36143d4565b6004811115613cc457613cc46143d4565b8152602001836080015181526020018360a0015181526020018360c0015181526020018360e001518152509050919050565b613d2f6040518060c001604052806000815260200160008152602001600081526020016000815260200160008152602001600081525090565b600854604080517fda53763100000000000000000000000000000000000000000000000000000000815290516000926001600160a01b03169163da53763191600480830192610120929190829003018186803b158015613d8e57600080fd5b505afa158015613da2573d6000803e3d6000fd5b505050506040513d601f19601f82011682018060405250810190613dc69190614d62565b90506000600860009054906101000a90046001600160a01b03166001600160a01b031663ffae4b366040518163ffffffff1660e01b81526004016101806040518083038186803b158015613e1957600080fd5b505afa158015613e2d573d6000803e3d6000fd5b505050506040513d601f19601f82011682018060405250810190613e519190614d7f565b90506040518060c001604052808360e0015181526020018361010001518152602001600960009054906101000a90046001600160a01b03166001600160a01b031663f369f2ac6040518163ffffffff1660e01b81526004016101406040518083038186803b158015613ec257600080fd5b505afa158015613ed6573d6000803e3d6000fd5b505050506040513d601f19601f82011682018060405250810190613efa9190614bed565b61012001518152602001826000015181526020018260400151815260200182602001518152509250505090565b6040518060c00160405280600081526020016000815260200160006004811115613f5357613f536143d4565b8152602001600081526020016000815260200160006005811115613f7957613f796143d4565b905290565b50805460008255906000526020600020908101906112849190613ff2565b60405180610100016040528060008152602001600081526020016000815260200160006004811115613fd057613fd06143d4565b8152602001600081526020016000815260200160008152602001600081525090565b5b808211156140075760008155600101613ff3565b5090565b60006020828403121561401d57600080fd5b5035919050565b634e487b7160e01b600052604160045260246000fd5b60405160a0810167ffffffffffffffff8111828210171561405d5761405d614024565b60405290565b604051610180810167ffffffffffffffff8111828210171561405d5761405d614024565b60405160c0810167ffffffffffffffff8111828210171561405d5761405d614024565b604051610120810167ffffffffffffffff8111828210171561405d5761405d614024565b604051610160810167ffffffffffffffff8111828210171561405d5761405d614024565b604051610140810167ffffffffffffffff8111828210171561405d5761405d614024565b604051601f8201601f1916810167ffffffffffffffff8111828210171561413f5761413f614024565b604052919050565b600060a0828403121561415957600080fd5b61416161403a565b82358152602083013560208201526040830135604082015260608301356060820152608083013560808201528091505092915050565b600061018082840312156141aa57600080fd5b6141b2614063565b823581526020830135602082015260408301356040820152606083013560608201526080830135608082015260a083013560a082015260c083013560c082015260e083013560e08201526101008084013581830152506101208084013581830152506101408084013581830152506101608084013581830152508091505092915050565b6001600160a01b038116811461128457600080fd5b6000806000806080858703121561426157600080fd5b843561426c81614236565b9350602085013561427c81614236565b9250604085013561428c81614236565b9150606085013561429c81614236565b939692955090935050565b6000806000606084860312156142bc57600080fd5b833592506020840135915060408401356142d581614236565b809150509250925092565b6000602082840312156142f257600080fd5b8135610d3b81614236565b6000806040838503121561431057600080fd5b82359150602083013561432281614236565b809150509250929050565b6005811061128457600080fd5b6006811061128457600080fd5b600080600083850361010081121561435e57600080fd5b60c081121561436c57600080fd5b50614375614087565b843581526020850135602082015260408501356143918161432d565b80604083015250606085013560608201526080850135608082015260a08501356143ba8161433a565b60a08201529560c0850135955060e0909401359392505050565b634e487b7160e01b600052602160045260246000fd5b6005811061128457634e487b7160e01b600052602160045260246000fd5b60208101614415836143ea565b91905290565b634e487b7160e01b600052603260045260246000fd5b634e487b7160e01b600052601160045260246000fd5b600181815b8085111561448257816000190482111561446857614468614431565b8085161561447557918102915b93841c939080029061444c565b509250929050565b600082614499575060016120bb565b816144a6575060006120bb565b81600181146144bc57600281146144c6576144e2565b60019150506120bb565b60ff8411156144d7576144d7614431565b50506001821b6120bb565b5060208310610133831016604e8410600b8410161715614505575081810a6120bb565b61450f8383614447565b806000190482111561452357614523614431565b029392505050565b6000610d3b838361448a565b600080831283600160ff1b0183128115161561455557614555614431565b837f7fffffffffffffffffffffffffffffffffffffffffffffffffffffffffffffff01831381161561458957614589614431565b50500390565b600082198211156145a2576145a2614431565b500190565b6000828210156145b9576145b9614431565b500390565b80516cffffffffffffffffffffffffff811681146136fa57600080fd5b80516fffffffffffffffffffffffffffffffff811681146136fa57600080fd5b805180151581146136fa57600080fd5b600080600080600080600080610100898b03121561462857600080fd5b885161ffff8116811461463a57600080fd5b975061464860208a016145be565b965061465660408a016145be565b95506060890151945061466b60808a016145db565b935061467960a08a016145db565b925060c0890151915061468e60e08a016145fb565b90509295985092959890939650565b6000602082840312156146af57600080fd5b610d3b826145fb565b80516136fa81614236565b6000602082840312156146d557600080fd5b8151610d3b81614236565b6000602082840312156146f257600080fd5b5051919050565b600060001982141561470d5761470d614431565b5060010190565b6000610120828403121561472757600080fd5b61472f6140aa565b9050815181526020820151602082015260408201516040820152606082015160608201526080820151608082015260a082015160a082015260c082015160c082015260e082015160e082015261010080830151818301525092915050565b600067ffffffffffffffff8211156147a7576147a7614024565b5060051b60200190565b600060a082840312156147c357600080fd5b6147cb61403a565b90508151815260208083015181830152604083015160408301526147f1606084016145fb565b6060830152608083015167ffffffffffffffff81111561481057600080fd5b8301601f8101851361482157600080fd5b805161483461482f8261478d565b614116565b81815260059190911b8201830190838101908783111561485357600080fd5b928401925b8284101561487157835182529284019290840190614858565b6080860152509295945050505050565b600080610140838503121561489557600080fd5b61489f8484614714565b915061012083015167ffffffffffffffff8111156148bc57600080fd5b6148c8858286016147b1565b9150509250929050565b600080604083850312156148e557600080fd5b505080516020909101519092909150565b6000600160ff1b82141561490c5761490c614431565b5060000390565b600060a0828403121561492557600080fd5b61492d61403a565b82518152602083015160208201526040830151604082015260608301516060820152608083015160808201528091505092915050565b6020808252825182820181905260009190848201906040850190845b8181101561499b5783518352928401929184019160010161497f565b50909695505050505050565b600060208083850312156149ba57600080fd5b825167ffffffffffffffff8111156149d157600080fd5b8301601f810185136149e257600080fd5b80516149f061482f8261478d565b81815260c09182028301840191848201919088841115614a0f57600080fd5b938501935b83851015614a895780858a031215614a2c5760008081fd5b614a34614087565b855181528686015187820152604080870151614a4f8161432d565b90820152606086810151908201526080808701519082015260a080870151614a768161433a565b9082015283529384019391850191614a14565b50979650505050505050565b6000816000190483118215151615614aaf57614aaf614431565b500290565b600082614ad157634e487b7160e01b600052601260045260246000fd5b500490565b600060208284031215614ae857600080fd5b815167ffffffffffffffff811115614aff57600080fd5b614b0b848285016147b1565b949350505050565b60006101608284031215614b2657600080fd5b614b2e6140ce565b614b37836146b8565b8152614b45602084016146b8565b6020820152614b56604084016146b8565b6040820152614b67606084016146b8565b6060820152614b78608084016146b8565b6080820152614b8960a084016146b8565b60a0820152614b9a60c084016146b8565b60c0820152614bab60e084016146b8565b60e0820152610100614bbe8185016146b8565b90820152610120614bd08482016146b8565b90820152610140614be28482016146b8565b908201529392505050565b60006101408284031215614c0057600080fd5b614c086140f2565b825181526020830151602082015260408301516040820152606083015160608201526080830151608082015260a083015160a082015260c083015160c082015260e083015160e08201526101008084015181830152506101208084015181830152508091505092915050565b60a08101614c81876143ea565b95815260208101949094526040840192909252606083015260809091015290565b6000610100820190508251825260208301516020830152604083015160408301526060830151614cd1816143ea565b806060840152506080830151608083015260a083015160a083015260c083015160c083015260e083015160e083015292915050565b600060608284031215614d1857600080fd5b6040516060810181811067ffffffffffffffff82111715614d3b57614d3b614024565b80604052508251815260208301516020820152604083015160408201528091505092915050565b60006101208284031215614d7557600080fd5b610d3b8383614714565b60006101808284031215614d9257600080fd5b614d9a614063565b825181526020830151602082015260408301516040820152606083015160608201526080830151608082015260a083015160a082015260c083015160c082015260e083015160e0820152610100808401518183015250610120808401518183015250610140808401518183015250610160614be28185016145fb56fea26469706673582212209caa9bf23dbba5652e9036ea01bd0da8675b2b2d11708304629e93cbea716d6e64736f6c63430008090033",
  "libraries": {
    "BlackScholes": "0x3AE81479aBEeA6b451e070F955eDDFf1Bc70C00b"
  },
  "devdoc": {
    "kind": "dev",
    "methods": {
      "_isValidExpiry(uint256)": {
        "details": "check if the expiry of the board is valid according to the strategy"
      },
      "doTrade(uint256,address)": {
        "details": "the vault should pass in a strike id, and the strategy would verify if the strike is valid on-chain.",
        "params": {
          "lyraRewardRecipient": "address to receive trading reward. This need to be whitelisted",
          "strikeId": "lyra strikeId to trade"
        },
        "returns": {
          "positionId": "positionId",
          "premiumReceived": "premiumReceived"
        }
      },
      "emergencyCloseAll(address)": {
        "details": "close all outstanding positions regardless of collat and send funds back to vault"
      },
      "getAllowedCloseAmount((uint256,uint256,uint8,uint256,uint256,uint8),uint256,uint256)": {
        "details": "calculates the position amount required to stay above the buffer collateral"
      },
      "getRequiredCollateral((uint256,uint256,uint256,uint256,uint256))": {
        "details": "calculate required collateral to add in the next trade. sell size is fixed as strategyDetail.size only add collateral if the additional sell will make the position out of buffer range never remove collateral from an existing position"
      },
      "isValidStrike((uint256,uint256,uint256,uint256,uint256))": {
        "details": "verify if the strike is valid for the strategy",
        "returns": {
          "isValid": "true if vol is withint [minVol, maxVol] and delta is within targetDelta +- maxDeltaGap"
        }
      },
      "owner()": {
        "details": "Returns the address of the current owner."
      },
      "reducePosition(uint256,uint256,address)": {
        "details": "use premium in strategy to reduce position size if collateral ratio is out of range"
      },
      "renounceOwnership()": {
        "details": "Leaves the contract without owner. It will not be possible to call `onlyOwner` functions anymore. Can only be called by the current owner. NOTE: Renouncing ownership will leave the contract without an owner, thereby removing any functionality that is only available to the owner."
      },
      "returnFundsAndClearStrikes()": {
        "details": "convert premium in quote asset into collateral asset and send it back to the vault."
      },
      "setBoard(uint256)": {
        "details": "set the board id that will be traded for the next round",
        "params": {
          "boardId": "lyra board Id."
        }
      },
      "setLyraAddresses(address,address,address,address)": {
        "details": "Assigns all lyra contracts",
        "params": {
          "_curveSwap": "Curve pool address for swapping sUSD and other stables via `exchange_with_best_rate`",
          "_feeCounter": "Fee counter addressu used to determine Lyra trading rewards",
          "_lyraRegistry": "LyraRegistry address which holds latest market and global addressess",
          "_optionMarket": "OptionMarket address"
        }
      },
      "setStrategyDetail((uint256,uint256,int256,uint256,uint256,uint256,uint256,uint256,uint256,uint256,uint256,uint256))": {
        "details": "update the strategy detail for the new round."
      },
      "transferOwnership(address)": {
        "details": "Transfers ownership of the contract to a new account (`newOwner`). Can only be called by the current owner."
      }
    },
    "version": 1
  },
  "userdoc": {
    "kind": "user",
    "methods": {
      "doTrade(uint256,address)": {
        "notice": "sell a fix aomunt of options and collect premium"
      },
      "updateDelegateApproval()": {
        "notice": "In case of an update to the synthetix contract that revokes the approval"
      }
    },
    "version": 1
  },
  "storageLayout": {
    "storage": [
      {
        "astId": 51422,
        "contract": "contracts/strategies/DeltaShortStrategy.sol:DeltaShortStrategy",
        "label": "_owner",
        "offset": 0,
        "slot": "0",
        "type": "t_address"
      },
      {
        "astId": 24756,
        "contract": "contracts/strategies/DeltaShortStrategy.sol:DeltaShortStrategy",
        "label": "lyraRegistry",
        "offset": 0,
        "slot": "1",
        "type": "t_contract(ILyraRegistry)18180"
      },
      {
        "astId": 24759,
        "contract": "contracts/strategies/DeltaShortStrategy.sol:DeltaShortStrategy",
        "label": "synthetixAdapter",
        "offset": 0,
        "slot": "2",
        "type": "t_contract(ISynthetixAdapter)20418"
      },
      {
        "astId": 24762,
        "contract": "contracts/strategies/DeltaShortStrategy.sol:DeltaShortStrategy",
        "label": "optionMarket",
        "offset": 0,
        "slot": "3",
        "type": "t_contract(IOptionMarket)19123"
      },
      {
        "astId": 24765,
        "contract": "contracts/strategies/DeltaShortStrategy.sol:DeltaShortStrategy",
        "label": "optionToken",
        "offset": 0,
        "slot": "4",
        "type": "t_contract(IOptionToken)19859"
      },
      {
        "astId": 24768,
        "contract": "contracts/strategies/DeltaShortStrategy.sol:DeltaShortStrategy",
        "label": "liquidityPool",
        "offset": 0,
        "slot": "5",
        "type": "t_contract(ILiquidityPool)18066"
      },
      {
        "astId": 24771,
        "contract": "contracts/strategies/DeltaShortStrategy.sol:DeltaShortStrategy",
        "label": "shortCollateral",
        "offset": 0,
        "slot": "6",
        "type": "t_contract(IShortCollateral)19998"
      },
      {
        "astId": 24774,
        "contract": "contracts/strategies/DeltaShortStrategy.sol:DeltaShortStrategy",
        "label": "gwavOracle",
        "offset": 0,
        "slot": "7",
        "type": "t_contract(IGWAVOracle)17514"
      },
      {
        "astId": 24777,
        "contract": "contracts/strategies/DeltaShortStrategy.sol:DeltaShortStrategy",
        "label": "optionPricer",
        "offset": 0,
        "slot": "8",
        "type": "t_contract(IOptionMarketPricer)19452"
      },
      {
        "astId": 24780,
        "contract": "contracts/strategies/DeltaShortStrategy.sol:DeltaShortStrategy",
        "label": "greekCache",
        "offset": 0,
        "slot": "9",
        "type": "t_contract(IOptionGreekCache)18607"
      },
      {
        "astId": 24783,
        "contract": "contracts/strategies/DeltaShortStrategy.sol:DeltaShortStrategy",
        "label": "quoteAsset",
        "offset": 0,
        "slot": "10",
        "type": "t_contract(IERC20)52183"
      },
      {
        "astId": 24786,
        "contract": "contracts/strategies/DeltaShortStrategy.sol:DeltaShortStrategy",
        "label": "baseAsset",
        "offset": 0,
        "slot": "11",
        "type": "t_contract(IERC20)52183"
      },
      {
        "astId": 24789,
        "contract": "contracts/strategies/DeltaShortStrategy.sol:DeltaShortStrategy",
        "label": "curveSwap",
        "offset": 0,
        "slot": "12",
        "type": "t_contract(ICurve)17398"
      },
      {
        "astId": 24792,
        "contract": "contracts/strategies/DeltaShortStrategy.sol:DeltaShortStrategy",
        "label": "feeCounter",
        "offset": 0,
        "slot": "13",
        "type": "t_contract(BasicFeeCounter)23024"
      },
      {
        "astId": 42376,
        "contract": "contracts/strategies/DeltaShortStrategy.sol:DeltaShortStrategy",
        "label": "collateralAsset",
        "offset": 0,
        "slot": "14",
        "type": "t_contract(IERC20)37167"
      },
      {
        "astId": 42380,
        "contract": "contracts/strategies/DeltaShortStrategy.sol:DeltaShortStrategy",
        "label": "lastTradeTimestamp",
        "offset": 0,
        "slot": "15",
        "type": "t_mapping(t_uint256,t_uint256)"
      },
      {
        "astId": 42383,
        "contract": "contracts/strategies/DeltaShortStrategy.sol:DeltaShortStrategy",
        "label": "activeStrikeIds",
        "offset": 0,
        "slot": "16",
        "type": "t_array(t_uint256)dyn_storage"
      },
      {
        "astId": 42387,
        "contract": "contracts/strategies/DeltaShortStrategy.sol:DeltaShortStrategy",
        "label": "strikeToPositionId",
        "offset": 0,
        "slot": "17",
        "type": "t_mapping(t_uint256,t_uint256)"
      },
      {
        "astId": 41530,
        "contract": "contracts/strategies/DeltaShortStrategy.sol:DeltaShortStrategy",
        "label": "strategyDetail",
        "offset": 0,
        "slot": "18",
        "type": "t_struct(DeltaShortStrategyDetail)41527_storage"
      },
      {
        "astId": 41532,
        "contract": "contracts/strategies/DeltaShortStrategy.sol:DeltaShortStrategy",
        "label": "activeExpiry",
        "offset": 0,
        "slot": "30",
        "type": "t_uint256"
      }
    ],
    "types": {
      "t_address": {
        "encoding": "inplace",
        "label": "address",
        "numberOfBytes": "20"
      },
      "t_array(t_uint256)dyn_storage": {
        "base": "t_uint256",
        "encoding": "dynamic_array",
        "label": "uint256[]",
        "numberOfBytes": "32"
      },
      "t_contract(BasicFeeCounter)23024": {
        "encoding": "inplace",
        "label": "contract BasicFeeCounter",
        "numberOfBytes": "20"
      },
      "t_contract(ICurve)17398": {
        "encoding": "inplace",
        "label": "contract ICurve",
        "numberOfBytes": "20"
      },
      "t_contract(IERC20)37167": {
        "encoding": "inplace",
        "label": "contract IERC20",
        "numberOfBytes": "20"
      },
      "t_contract(IERC20)52183": {
        "encoding": "inplace",
        "label": "contract IERC20",
        "numberOfBytes": "20"
      },
      "t_contract(IGWAVOracle)17514": {
        "encoding": "inplace",
        "label": "contract IGWAVOracle",
        "numberOfBytes": "20"
      },
      "t_contract(ILiquidityPool)18066": {
        "encoding": "inplace",
        "label": "contract ILiquidityPool",
        "numberOfBytes": "20"
      },
      "t_contract(ILyraRegistry)18180": {
        "encoding": "inplace",
        "label": "contract ILyraRegistry",
        "numberOfBytes": "20"
      },
      "t_contract(IOptionGreekCache)18607": {
        "encoding": "inplace",
        "label": "contract IOptionGreekCache",
        "numberOfBytes": "20"
      },
      "t_contract(IOptionMarket)19123": {
        "encoding": "inplace",
        "label": "contract IOptionMarket",
        "numberOfBytes": "20"
      },
      "t_contract(IOptionMarketPricer)19452": {
        "encoding": "inplace",
        "label": "contract IOptionMarketPricer",
        "numberOfBytes": "20"
      },
      "t_contract(IOptionToken)19859": {
        "encoding": "inplace",
        "label": "contract IOptionToken",
        "numberOfBytes": "20"
      },
      "t_contract(IShortCollateral)19998": {
        "encoding": "inplace",
        "label": "contract IShortCollateral",
        "numberOfBytes": "20"
      },
      "t_contract(ISynthetixAdapter)20418": {
        "encoding": "inplace",
        "label": "contract ISynthetixAdapter",
        "numberOfBytes": "20"
      },
      "t_int256": {
        "encoding": "inplace",
        "label": "int256",
        "numberOfBytes": "32"
      },
      "t_mapping(t_uint256,t_uint256)": {
        "encoding": "mapping",
        "key": "t_uint256",
        "label": "mapping(uint256 => uint256)",
        "numberOfBytes": "32",
        "value": "t_uint256"
      },
      "t_struct(DeltaShortStrategyDetail)41527_storage": {
        "encoding": "inplace",
        "label": "struct DeltaShortStrategy.DeltaShortStrategyDetail",
        "members": [
          {
            "astId": 41504,
            "contract": "contracts/strategies/DeltaShortStrategy.sol:DeltaShortStrategy",
            "label": "minTimeToExpiry",
            "offset": 0,
            "slot": "0",
            "type": "t_uint256"
          },
          {
            "astId": 41506,
            "contract": "contracts/strategies/DeltaShortStrategy.sol:DeltaShortStrategy",
            "label": "maxTimeToExpiry",
            "offset": 0,
            "slot": "1",
            "type": "t_uint256"
          },
          {
            "astId": 41508,
            "contract": "contracts/strategies/DeltaShortStrategy.sol:DeltaShortStrategy",
            "label": "targetDelta",
            "offset": 0,
            "slot": "2",
            "type": "t_int256"
          },
          {
            "astId": 41510,
            "contract": "contracts/strategies/DeltaShortStrategy.sol:DeltaShortStrategy",
            "label": "maxDeltaGap",
            "offset": 0,
            "slot": "3",
            "type": "t_uint256"
          },
          {
            "astId": 41512,
            "contract": "contracts/strategies/DeltaShortStrategy.sol:DeltaShortStrategy",
            "label": "minVol",
            "offset": 0,
            "slot": "4",
            "type": "t_uint256"
          },
          {
            "astId": 41514,
            "contract": "contracts/strategies/DeltaShortStrategy.sol:DeltaShortStrategy",
            "label": "maxVol",
            "offset": 0,
            "slot": "5",
            "type": "t_uint256"
          },
          {
            "astId": 41516,
            "contract": "contracts/strategies/DeltaShortStrategy.sol:DeltaShortStrategy",
            "label": "size",
            "offset": 0,
            "slot": "6",
            "type": "t_uint256"
          },
          {
            "astId": 41518,
            "contract": "contracts/strategies/DeltaShortStrategy.sol:DeltaShortStrategy",
            "label": "minTradeInterval",
            "offset": 0,
            "slot": "7",
            "type": "t_uint256"
          },
          {
            "astId": 41520,
            "contract": "contracts/strategies/DeltaShortStrategy.sol:DeltaShortStrategy",
            "label": "maxVolVariance",
            "offset": 0,
            "slot": "8",
            "type": "t_uint256"
          },
          {
            "astId": 41522,
            "contract": "contracts/strategies/DeltaShortStrategy.sol:DeltaShortStrategy",
            "label": "gwavPeriod",
            "offset": 0,
            "slot": "9",
            "type": "t_uint256"
          },
          {
            "astId": 41524,
            "contract": "contracts/strategies/DeltaShortStrategy.sol:DeltaShortStrategy",
            "label": "collatBuffer",
            "offset": 0,
            "slot": "10",
            "type": "t_uint256"
          },
          {
            "astId": 41526,
            "contract": "contracts/strategies/DeltaShortStrategy.sol:DeltaShortStrategy",
            "label": "collatPercent",
            "offset": 0,
            "slot": "11",
            "type": "t_uint256"
          }
        ],
        "numberOfBytes": "384"
      },
      "t_uint256": {
        "encoding": "inplace",
        "label": "uint256",
        "numberOfBytes": "32"
      }
    }
  }
}