{
  "address": "0x09635F643e140090A9A8Dcd712eD6285858ceBef",
  "abi": [
    {
      "inputs": [
        {
          "internalType": "address",
          "name": "_susd",
          "type": "address"
        },
        {
          "internalType": "address",
          "name": "_feeRecipient",
          "type": "address"
        },
        {
          "internalType": "uint256",
          "name": "_roundDuration",
          "type": "uint256"
        },
        {
          "internalType": "string",
          "name": "_tokenName",
          "type": "string"
        },
        {
          "internalType": "string",
          "name": "_tokenSymbol",
          "type": "string"
        },
        {
          "components": [
            {
              "internalType": "uint8",
              "name": "decimals",
              "type": "uint8"
            },
            {
              "internalType": "uint104",
              "name": "cap",
              "type": "uint104"
            },
            {
              "internalType": "address",
              "name": "asset",
              "type": "address"
            }
          ],
          "internalType": "struct Vault.VaultParams",
          "name": "_vaultParams",
          "type": "tuple"
        }
      ],
      "stateMutability": "nonpayable",
      "type": "constructor"
    },
    {
      "anonymous": false,
      "inputs": [
        {
          "indexed": true,
          "internalType": "address",
          "name": "owner",
          "type": "address"
        },
        {
          "indexed": true,
          "internalType": "address",
          "name": "spender",
          "type": "address"
        },
        {
          "indexed": false,
          "internalType": "uint256",
          "name": "value",
          "type": "uint256"
        }
      ],
      "name": "Approval",
      "type": "event"
    },
    {
      "anonymous": false,
      "inputs": [
        {
          "indexed": false,
          "internalType": "uint256",
          "name": "oldCap",
          "type": "uint256"
        },
        {
          "indexed": false,
          "internalType": "uint256",
          "name": "newCap",
          "type": "uint256"
        },
        {
          "indexed": false,
          "internalType": "address",
          "name": "manager",
          "type": "address"
        }
      ],
      "name": "CapSet",
      "type": "event"
    },
    {
      "anonymous": false,
      "inputs": [
        {
          "indexed": false,
          "internalType": "uint256",
          "name": "performanceFee",
          "type": "uint256"
        },
        {
          "indexed": false,
          "internalType": "uint256",
          "name": "vaultFee",
          "type": "uint256"
        },
        {
          "indexed": false,
          "internalType": "uint256",
          "name": "round",
          "type": "uint256"
        },
        {
          "indexed": true,
          "internalType": "address",
          "name": "feeRecipient",
          "type": "address"
        }
      ],
      "name": "CollectVaultFees",
      "type": "event"
    },
    {
      "anonymous": false,
      "inputs": [
        {
          "indexed": true,
          "internalType": "address",
          "name": "account",
          "type": "address"
        },
        {
          "indexed": false,
          "internalType": "uint256",
          "name": "amount",
          "type": "uint256"
        },
        {
          "indexed": false,
          "internalType": "uint256",
          "name": "round",
          "type": "uint256"
        }
      ],
      "name": "Deposit",
      "type": "event"
    },
    {
      "anonymous": false,
      "inputs": [
        {
          "indexed": true,
          "internalType": "address",
          "name": "account",
          "type": "address"
        },
        {
          "indexed": false,
          "internalType": "uint256",
          "name": "shares",
          "type": "uint256"
        },
        {
          "indexed": false,
          "internalType": "uint256",
          "name": "round",
          "type": "uint256"
        }
      ],
      "name": "InitiateWithdraw",
      "type": "event"
    },
    {
      "anonymous": false,
      "inputs": [
        {
          "indexed": false,
          "internalType": "uint256",
          "name": "managementFee",
          "type": "uint256"
        },
        {
          "indexed": false,
          "internalType": "uint256",
          "name": "newManagementFee",
          "type": "uint256"
        }
      ],
      "name": "ManagementFeeSet",
      "type": "event"
    },
    {
      "anonymous": false,
      "inputs": [
        {
          "indexed": true,
          "internalType": "address",
          "name": "previousOwner",
          "type": "address"
        },
        {
          "indexed": true,
          "internalType": "address",
          "name": "newOwner",
          "type": "address"
        }
      ],
      "name": "OwnershipTransferred",
      "type": "event"
    },
    {
      "anonymous": false,
      "inputs": [
        {
          "indexed": false,
          "internalType": "uint256",
          "name": "performanceFee",
          "type": "uint256"
        },
        {
          "indexed": false,
          "internalType": "uint256",
          "name": "newPerformanceFee",
          "type": "uint256"
        }
      ],
      "name": "PerformanceFeeSet",
      "type": "event"
    },
    {
      "anonymous": false,
      "inputs": [
        {
          "indexed": true,
          "internalType": "address",
          "name": "account",
          "type": "address"
        },
        {
          "indexed": false,
          "internalType": "uint256",
          "name": "share",
          "type": "uint256"
        },
        {
          "indexed": false,
          "internalType": "uint256",
          "name": "round",
          "type": "uint256"
        }
      ],
      "name": "Redeem",
      "type": "event"
    },
    {
      "anonymous": false,
      "inputs": [
        {
          "indexed": false,
          "internalType": "uint16",
          "name": "roundId",
          "type": "uint16"
        },
        {
          "indexed": false,
          "internalType": "uint104",
          "name": "lockAmount",
          "type": "uint104"
        }
      ],
      "name": "RoundClosed",
      "type": "event"
    },
    {
      "anonymous": false,
      "inputs": [
        {
          "indexed": false,
          "internalType": "uint16",
          "name": "roundId",
          "type": "uint16"
        },
        {
          "indexed": false,
          "internalType": "uint104",
          "name": "lockAmount",
          "type": "uint104"
        }
      ],
      "name": "RoundStarted",
      "type": "event"
    },
    {
      "anonymous": false,
      "inputs": [
        {
          "indexed": false,
          "internalType": "address",
          "name": "strategy",
          "type": "address"
        }
      ],
      "name": "StrategyUpdated",
      "type": "event"
    },
    {
      "anonymous": false,
      "inputs": [
        {
          "indexed": false,
          "internalType": "address",
          "name": "user",
          "type": "address"
        },
        {
          "indexed": false,
          "internalType": "uint256",
          "name": "positionId",
          "type": "uint256"
        },
        {
          "indexed": false,
          "internalType": "uint256",
          "name": "premium",
          "type": "uint256"
        },
        {
          "indexed": false,
          "internalType": "uint256",
          "name": "capitalUsed",
          "type": "uint256"
        }
      ],
      "name": "Trade",
      "type": "event"
    },
    {
      "anonymous": false,
      "inputs": [
        {
          "indexed": true,
          "internalType": "address",
          "name": "from",
          "type": "address"
        },
        {
          "indexed": true,
          "internalType": "address",
          "name": "to",
          "type": "address"
        },
        {
          "indexed": false,
          "internalType": "uint256",
          "name": "value",
          "type": "uint256"
        }
      ],
      "name": "Transfer",
      "type": "event"
    },
    {
      "anonymous": false,
      "inputs": [
        {
          "indexed": true,
          "internalType": "address",
          "name": "account",
          "type": "address"
        },
        {
          "indexed": false,
          "internalType": "uint256",
          "name": "amount",
          "type": "uint256"
        },
        {
          "indexed": false,
          "internalType": "uint256",
          "name": "shares",
          "type": "uint256"
        }
      ],
      "name": "Withdraw",
      "type": "event"
    },
    {
      "inputs": [
        {
          "internalType": "address",
          "name": "account",
          "type": "address"
        }
      ],
      "name": "accountVaultBalance",
      "outputs": [
        {
          "internalType": "uint256",
          "name": "",
          "type": "uint256"
        }
      ],
      "stateMutability": "view",
      "type": "function"
    },
    {
      "inputs": [
        {
          "internalType": "address",
          "name": "owner",
          "type": "address"
        },
        {
          "internalType": "address",
          "name": "spender",
          "type": "address"
        }
      ],
      "name": "allowance",
      "outputs": [
        {
          "internalType": "uint256",
          "name": "",
          "type": "uint256"
        }
      ],
      "stateMutability": "view",
      "type": "function"
    },
    {
      "inputs": [
        {
          "internalType": "address",
          "name": "spender",
          "type": "address"
        },
        {
          "internalType": "uint256",
          "name": "amount",
          "type": "uint256"
        }
      ],
      "name": "approve",
      "outputs": [
        {
          "internalType": "bool",
          "name": "",
          "type": "bool"
        }
      ],
      "stateMutability": "nonpayable",
      "type": "function"
    },
    {
      "inputs": [
        {
          "internalType": "address",
          "name": "account",
          "type": "address"
        }
      ],
      "name": "balanceOf",
      "outputs": [
        {
          "internalType": "uint256",
          "name": "",
          "type": "uint256"
        }
      ],
      "stateMutability": "view",
      "type": "function"
    },
    {
      "inputs": [],
      "name": "closeRound",
      "outputs": [],
      "stateMutability": "nonpayable",
      "type": "function"
    },
    {
      "inputs": [],
      "name": "collateralAsset",
      "outputs": [
        {
          "internalType": "contract IERC20",
          "name": "",
          "type": "address"
        }
      ],
      "stateMutability": "view",
      "type": "function"
    },
    {
      "inputs": [],
      "name": "completeWithdraw",
      "outputs": [],
      "stateMutability": "nonpayable",
      "type": "function"
    },
    {
      "inputs": [],
      "name": "decimals",
      "outputs": [
        {
          "internalType": "uint8",
          "name": "",
          "type": "uint8"
        }
      ],
      "stateMutability": "view",
      "type": "function"
    },
    {
      "inputs": [
        {
          "internalType": "address",
          "name": "spender",
          "type": "address"
        },
        {
          "internalType": "uint256",
          "name": "subtractedValue",
          "type": "uint256"
        }
      ],
      "name": "decreaseAllowance",
      "outputs": [
        {
          "internalType": "bool",
          "name": "",
          "type": "bool"
        }
      ],
      "stateMutability": "nonpayable",
      "type": "function"
    },
    {
      "inputs": [
        {
          "internalType": "uint256",
          "name": "amount",
          "type": "uint256"
        }
      ],
      "name": "deposit",
      "outputs": [],
      "stateMutability": "nonpayable",
      "type": "function"
    },
    {
      "inputs": [
        {
          "internalType": "uint256",
          "name": "amount",
          "type": "uint256"
        },
        {
          "internalType": "address",
          "name": "creditor",
          "type": "address"
        }
      ],
      "name": "depositFor",
      "outputs": [],
      "stateMutability": "nonpayable",
      "type": "function"
    },
    {
      "inputs": [
        {
          "internalType": "address",
          "name": "",
          "type": "address"
        }
      ],
      "name": "depositReceipts",
      "outputs": [
        {
          "internalType": "uint16",
          "name": "round",
          "type": "uint16"
        },
        {
          "internalType": "uint104",
          "name": "amount",
          "type": "uint104"
        },
        {
          "internalType": "uint128",
          "name": "unredeemedShares",
          "type": "uint128"
        }
      ],
      "stateMutability": "view",
      "type": "function"
    },
    {
      "inputs": [],
      "name": "emergencyCloseRound",
      "outputs": [],
      "stateMutability": "nonpayable",
      "type": "function"
    },
    {
      "inputs": [],
      "name": "feeRecipient",
      "outputs": [
        {
          "internalType": "address",
          "name": "",
          "type": "address"
        }
      ],
      "stateMutability": "view",
      "type": "function"
    },
    {
      "inputs": [
        {
          "internalType": "address",
          "name": "spender",
          "type": "address"
        },
        {
          "internalType": "uint256",
          "name": "addedValue",
          "type": "uint256"
        }
      ],
      "name": "increaseAllowance",
      "outputs": [
        {
          "internalType": "bool",
          "name": "",
          "type": "bool"
        }
      ],
      "stateMutability": "nonpayable",
      "type": "function"
    },
    {
      "inputs": [
        {
          "internalType": "uint256",
          "name": "numShares",
          "type": "uint256"
        }
      ],
      "name": "initiateWithdraw",
      "outputs": [],
      "stateMutability": "nonpayable",
      "type": "function"
    },
    {
      "inputs": [],
      "name": "lastQueuedWithdrawAmount",
      "outputs": [
        {
          "internalType": "uint256",
          "name": "",
          "type": "uint256"
        }
      ],
      "stateMutability": "view",
      "type": "function"
    },
    {
      "inputs": [],
      "name": "lyraRewardRecipient",
      "outputs": [
        {
          "internalType": "address",
          "name": "",
          "type": "address"
        }
      ],
      "stateMutability": "view",
      "type": "function"
    },
    {
      "inputs": [],
      "name": "managementFee",
      "outputs": [
        {
          "internalType": "uint256",
          "name": "",
          "type": "uint256"
        }
      ],
      "stateMutability": "view",
      "type": "function"
    },
    {
      "inputs": [],
      "name": "maxRedeem",
      "outputs": [],
      "stateMutability": "nonpayable",
      "type": "function"
    },
    {
      "inputs": [],
      "name": "name",
      "outputs": [
        {
          "internalType": "string",
          "name": "",
          "type": "string"
        }
      ],
      "stateMutability": "view",
      "type": "function"
    },
    {
      "inputs": [],
      "name": "optionAllocation",
      "outputs": [
        {
          "internalType": "uint256",
          "name": "",
          "type": "uint256"
        }
      ],
      "stateMutability": "view",
      "type": "function"
    },
    {
      "inputs": [],
      "name": "owner",
      "outputs": [
        {
          "internalType": "address",
          "name": "",
          "type": "address"
        }
      ],
      "stateMutability": "view",
      "type": "function"
    },
    {
      "inputs": [],
      "name": "performanceFee",
      "outputs": [
        {
          "internalType": "uint256",
          "name": "",
          "type": "uint256"
        }
      ],
      "stateMutability": "view",
      "type": "function"
    },
    {
      "inputs": [],
      "name": "premiumAsset",
      "outputs": [
        {
          "internalType": "contract IERC20",
          "name": "",
          "type": "address"
        }
      ],
      "stateMutability": "view",
      "type": "function"
    },
    {
      "inputs": [],
      "name": "pricePerShare",
      "outputs": [
        {
          "internalType": "uint256",
          "name": "",
          "type": "uint256"
        }
      ],
      "stateMutability": "view",
      "type": "function"
    },
    {
      "inputs": [
        {
          "internalType": "uint256",
          "name": "numShares",
          "type": "uint256"
        }
      ],
      "name": "redeem",
      "outputs": [],
      "stateMutability": "nonpayable",
      "type": "function"
    },
    {
      "inputs": [
        {
          "internalType": "uint256",
          "name": "positionId",
          "type": "uint256"
        },
        {
          "internalType": "uint256",
          "name": "closeAmount",
          "type": "uint256"
        }
      ],
      "name": "reducePosition",
      "outputs": [],
      "stateMutability": "nonpayable",
      "type": "function"
    },
    {
      "inputs": [],
      "name": "renounceOwnership",
      "outputs": [],
      "stateMutability": "nonpayable",
      "type": "function"
    },
    {
      "inputs": [
        {
          "internalType": "uint256",
          "name": "",
          "type": "uint256"
        }
      ],
      "name": "roundPricePerShare",
      "outputs": [
        {
          "internalType": "uint256",
          "name": "",
          "type": "uint256"
        }
      ],
      "stateMutability": "view",
      "type": "function"
    },
    {
      "inputs": [
        {
          "internalType": "uint256",
          "name": "newCap",
          "type": "uint256"
        }
      ],
      "name": "setCap",
      "outputs": [],
      "stateMutability": "nonpayable",
      "type": "function"
    },
    {
      "inputs": [
        {
          "internalType": "address",
          "name": "newFeeRecipient",
          "type": "address"
        }
      ],
      "name": "setFeeRecipient",
      "outputs": [],
      "stateMutability": "nonpayable",
      "type": "function"
    },
    {
      "inputs": [
        {
          "internalType": "address",
          "name": "recipient",
          "type": "address"
        }
      ],
      "name": "setLyraRewardRecipient",
      "outputs": [],
      "stateMutability": "nonpayable",
      "type": "function"
    },
    {
      "inputs": [
        {
          "internalType": "uint256",
          "name": "newManagementFee",
          "type": "uint256"
        }
      ],
      "name": "setManagementFee",
      "outputs": [],
      "stateMutability": "nonpayable",
      "type": "function"
    },
    {
      "inputs": [
        {
          "internalType": "uint256",
          "name": "newPerformanceFee",
          "type": "uint256"
        }
      ],
      "name": "setPerformanceFee",
      "outputs": [],
      "stateMutability": "nonpayable",
      "type": "function"
    },
    {
      "inputs": [
        {
          "internalType": "address",
          "name": "_strategy",
          "type": "address"
        }
      ],
      "name": "setStrategy",
      "outputs": [],
      "stateMutability": "nonpayable",
      "type": "function"
    },
    {
      "inputs": [
        {
          "internalType": "address",
          "name": "account",
          "type": "address"
        }
      ],
      "name": "shareBalances",
      "outputs": [
        {
          "internalType": "uint256",
          "name": "heldByAccount",
          "type": "uint256"
        },
        {
          "internalType": "uint256",
          "name": "heldByVault",
          "type": "uint256"
        }
      ],
      "stateMutability": "view",
      "type": "function"
    },
    {
      "inputs": [
        {
          "internalType": "address",
          "name": "account",
          "type": "address"
        }
      ],
      "name": "shares",
      "outputs": [
        {
          "internalType": "uint256",
          "name": "",
          "type": "uint256"
        }
      ],
      "stateMutability": "view",
      "type": "function"
    },
    {
      "inputs": [
        {
          "internalType": "uint256",
          "name": "boardId",
          "type": "uint256"
        }
      ],
      "name": "startNextRound",
      "outputs": [],
      "stateMutability": "nonpayable",
      "type": "function"
    },
    {
      "inputs": [],
      "name": "strategy",
      "outputs": [
        {
          "internalType": "contract IStrategy",
          "name": "",
          "type": "address"
        }
      ],
      "stateMutability": "view",
      "type": "function"
    },
    {
      "inputs": [],
      "name": "symbol",
      "outputs": [
        {
          "internalType": "string",
          "name": "",
          "type": "string"
        }
      ],
      "stateMutability": "view",
      "type": "function"
    },
    {
      "inputs": [],
      "name": "totalBalance",
      "outputs": [
        {
          "internalType": "uint256",
          "name": "",
          "type": "uint256"
        }
      ],
      "stateMutability": "view",
      "type": "function"
    },
    {
      "inputs": [],
      "name": "totalSupply",
      "outputs": [
        {
          "internalType": "uint256",
          "name": "",
          "type": "uint256"
        }
      ],
      "stateMutability": "view",
      "type": "function"
    },
    {
      "inputs": [
        {
          "internalType": "uint256",
          "name": "strikeId",
          "type": "uint256"
        }
      ],
      "name": "trade",
      "outputs": [],
      "stateMutability": "nonpayable",
      "type": "function"
    },
    {
      "inputs": [
        {
          "internalType": "address",
          "name": "to",
          "type": "address"
        },
        {
          "internalType": "uint256",
          "name": "amount",
          "type": "uint256"
        }
      ],
      "name": "transfer",
      "outputs": [
        {
          "internalType": "bool",
          "name": "",
          "type": "bool"
        }
      ],
      "stateMutability": "nonpayable",
      "type": "function"
    },
    {
      "inputs": [
        {
          "internalType": "address",
          "name": "from",
          "type": "address"
        },
        {
          "internalType": "address",
          "name": "to",
          "type": "address"
        },
        {
          "internalType": "uint256",
          "name": "amount",
          "type": "uint256"
        }
      ],
      "name": "transferFrom",
      "outputs": [
        {
          "internalType": "bool",
          "name": "",
          "type": "bool"
        }
      ],
      "stateMutability": "nonpayable",
      "type": "function"
    },
    {
      "inputs": [
        {
          "internalType": "address",
          "name": "newOwner",
          "type": "address"
        }
      ],
      "name": "transferOwnership",
      "outputs": [],
      "stateMutability": "nonpayable",
      "type": "function"
    },
    {
      "inputs": [],
      "name": "vaultParams",
      "outputs": [
        {
          "internalType": "uint8",
          "name": "decimals",
          "type": "uint8"
        },
        {
          "internalType": "uint104",
          "name": "cap",
          "type": "uint104"
        },
        {
          "internalType": "address",
          "name": "asset",
          "type": "address"
        }
      ],
      "stateMutability": "view",
      "type": "function"
    },
    {
      "inputs": [],
      "name": "vaultState",
      "outputs": [
        {
          "internalType": "uint16",
          "name": "round",
          "type": "uint16"
        },
        {
          "internalType": "uint104",
          "name": "lockedAmount",
          "type": "uint104"
        },
        {
          "internalType": "uint104",
          "name": "lastLockedAmount",
          "type": "uint104"
        },
        {
          "internalType": "uint256",
          "name": "lockedAmountLeft",
          "type": "uint256"
        },
        {
          "internalType": "uint128",
          "name": "totalPending",
          "type": "uint128"
        },
        {
          "internalType": "uint128",
          "name": "queuedWithdrawShares",
          "type": "uint128"
        },
        {
          "internalType": "uint256",
          "name": "nextRoundReadyTimestamp",
          "type": "uint256"
        },
        {
          "internalType": "bool",
          "name": "roundInProgress",
          "type": "bool"
        }
      ],
      "stateMutability": "view",
      "type": "function"
    },
    {
      "inputs": [
        {
          "internalType": "address",
          "name": "",
          "type": "address"
        }
      ],
      "name": "withdrawals",
      "outputs": [
        {
          "internalType": "uint16",
          "name": "round",
          "type": "uint16"
        },
        {
          "internalType": "uint128",
          "name": "shares",
          "type": "uint128"
        }
      ],
      "stateMutability": "view",
      "type": "function"
    }
  ],
  "transactionHash": "0x802c5f0b7c8bebed31a0a98218ecfb34597bcc3fc5406ddcef3840275045f484",
  "args": [
    "0x5108a03E4daFb6Af2cb8416cDBe20b4D6c675704",
    "0xf39Fd6e51aad88F6F4ce6aB8827279cffFb92266",
    604800,
    "LyraVault Share",
    "Lyra VS",
    {
      "decimals": 18,
      "cap": "100000000000000000000000",
      "asset": "0x5108a03E4daFb6Af2cb8416cDBe20b4D6c675704"
    }
  ],
  "numDeployments": 1,
  "solcInputHash": "da1b2efd2c033d4948af2192ee20b985",
  "bytecode": "0x60e06040523480156200001157600080fd5b506040516200437738038062004377833981016040819052620000349162000472565b6001600055848484848482826200004b3362000202565b815162000060906005906020850190620002a6565b50805162000076906006906020840190620002a6565b5050601280546001600160a01b0319166001600160a01b03881617905550600084620000aa620f42406301e133806200057b565b620000b69190620005a9565b60808190528251600b805460208601516001600160681b0316610100026001600160701b031990911660ff90931692909217919091179055604080840151600c80546001600160a01b039092166001600160a01b03199092168217905590516370a0823160e01b81523060048201529192506000916370a082319060240160206040518083038186803b1580156200014d57600080fd5b505afa15801562000162573d6000803e3d6000fd5b505050506040513d601f19601f82011682018060405250810190620001889190620005cc565b9050620001a0816200025460201b620024c51760201c565b600d805461ffff196001600160681b03909316600160781b029290921661ffff600160781b03600160e01b03199092169190911760011790555050506001600160a01b0398891660a0525050506040015190941660c052506200062392505050565b600180546001600160a01b038381166001600160a01b0319831681179093556040519116919082907f8be0079c531659141344cd1fd0a4f28419497f9722a3daafe3b4186f6b6457e090600090a35050565b6001600160681b03811115620002a35760405162461bcd60e51b815260206004820152601060248201526f13dd995c999b1bddc81d5a5b9d0c4c0d60821b604482015260640160405180910390fd5b50565b828054620002b490620005e6565b90600052602060002090601f016020900481019282620002d8576000855562000323565b82601f10620002f357805160ff191683800117855562000323565b8280016001018555821562000323579182015b828111156200032357825182559160200191906001019062000306565b506200033192915062000335565b5090565b5b8082111562000331576000815560010162000336565b80516001600160a01b03811681146200036457600080fd5b919050565b634e487b7160e01b600052604160045260246000fd5b604051606081016001600160401b0381118282101715620003a457620003a462000369565b60405290565b604051601f8201601f191681016001600160401b0381118282101715620003d557620003d562000369565b604052919050565b600082601f830112620003ef57600080fd5b81516001600160401b038111156200040b576200040b62000369565b602062000421601f8301601f19168201620003aa565b82815285828487010111156200043657600080fd5b60005b838110156200045657858101830151828201840152820162000439565b83811115620004685760008385840101525b5095945050505050565b6000806000806000808688036101008112156200048e57600080fd5b62000499886200034c565b9650620004a9602089016200034c565b604089015160608a015191975095506001600160401b0380821115620004ce57600080fd5b620004dc8b838c01620003dd565b955060808a0151915080821115620004f357600080fd5b50620005028a828b01620003dd565b9350506060609f19820112156200051857600080fd5b50620005236200037f565b60a088015160ff811681146200053857600080fd5b815260c08801516001600160681b03811681146200055557600080fd5b60208201526200056860e089016200034c565b6040820152809150509295509295509295565b6000816000190483118215151615620005a457634e487b7160e01b600052601160045260246000fd5b500290565b600082620005c757634e487b7160e01b600052601260045260246000fd5b500490565b600060208284031215620005df57600080fd5b5051919050565b600181811c90821680620005fb57607f821691505b602082108114156200061d57634e487b7160e01b600052602260045260246000fd5b50919050565b60805160a05160c051613d16620006616000396000818161075201528181610c350152610d00015260006107c3015260006124890152613d166000f3fe608060405234801561001057600080fd5b50600436106103365760003560e01c80638da5cb5b116101b2578063c9f369c2116100f9578063e278fe6f116100a2578063f656ba511161007c578063f656ba511461085f578063f756fa2114610887578063fb8dc75e1461088f578063fe56e232146108a257600080fd5b8063e278fe6f14610831578063e74b981b14610839578063f2fde38b1461084c57600080fd5b8063db330143116100d3578063db330143146107be578063dd62ed3e146107e5578063df1dd8261461081e57600080fd5b8063c9f369c21461078f578063ce7c2ac214610798578063db006a75146107ab57600080fd5b8063a6f7f5d61161015b578063aabaecd611610135578063aabaecd61461074d578063ad7a672f14610774578063b6b55f251461077c57600080fd5b8063a6f7f5d61461071e578063a8c62e7614610727578063a9059cbb1461073a57600080fd5b80639fcc2d751161018c5780639fcc2d75146106a8578063a457c2d714610703578063a5a279b51461071657600080fd5b80638da5cb5b1461068757806395d89b411461069857806399530b06146106a057600080fd5b8063469048401161028157806370a082311161022a5780637a9262a2116102045780637a9262a2146105f45780637e108d521461064b57806387153eb11461065e578063877887821461067e57600080fd5b806370a08231146105b0578063715018a6146105d957806375a0b6dd146105e157600080fd5b80636719b2ee1161025b5780636719b2ee1461051e5780636f31ab341461059557806370897b231461059d57600080fd5b806346904840146104ef57806347786d3714610502578063503c70aa1461051557600080fd5b80632728f333116102e357806336efd16f116102bd57806336efd16f146104b657806339509351146104c95780633f23bb73146104dc57600080fd5b80632728f333146103e1578063313ce5671461048e57806333a100ca146104a357600080fd5b80630f68b30b116103145780630f68b30b1461039157806318160ddd146103bc57806323b872dd146103ce57600080fd5b806306fdde031461033b5780630900856314610359578063095ea7b31461036e575b600080fd5b6103436108b5565b6040516103509190613949565b60405180910390f35b61036c61036736600461397c565b610947565b005b61038161037c3660046139b1565b610b61565b6040519015158152602001610350565b6034546103a4906001600160a01b031681565b6040516001600160a01b039091168152602001610350565b6004545b604051908152602001610350565b6103816103dc3660046139db565b610b7b565b600d54600e54600f546010546011546104339461ffff8116946001600160681b03620100008304811695600160781b909304169390926001600160801b0380841693600160801b900416919060ff1688565b6040805161ffff9990991689526001600160681b0397881660208a0152959096169487019490945260608601929092526001600160801b0390811660808601521660a084015260c0830152151560e082015261010001610350565b600b5460405160ff9091168152602001610350565b61036c6104b1366004613a17565b610ba1565b61036c6104c4366004613a32565b610dbf565b6103816104d73660046139b1565b610ecf565b6103c06104ea366004613a17565b610f0e565b6012546103a4906001600160a01b031681565b61036c61051036600461397c565b610f5b565b6103c060355481565b61056461052c366004613a17565b60086020526000908152604090205461ffff8116906201000081046001600160681b031690600160781b90046001600160801b031683565b6040805161ffff90941684526001600160681b0390921660208401526001600160801b031690820152606001610350565b61036c61108d565b61036c6105ab36600461397c565b6110f9565b6103c06105be366004613a17565b6001600160a01b031660009081526002602052604090205490565b61036c6111f0565b61036c6105ef366004613a5e565b611256565b610629610602366004613a17565b600a6020526000908152604090205461ffff8116906201000090046001600160801b031682565b6040805161ffff90931683526001600160801b03909116602083015201610350565b61036c61065936600461397c565b6112e2565b6103c061066c36600461397c565b60096020526000908152604090205481565b6103c060135481565b6001546001600160a01b03166103a4565b610343611563565b6103c0611572565b600b54600c546106d39160ff8116916101009091046001600160681b0316906001600160a01b031683565b6040805160ff90941684526001600160681b0390921660208401526001600160a01b031690820152606001610350565b6103816107113660046139b1565b6115a7565b61036c61165c565b6103c060145481565b6033546103a4906001600160a01b031681565b6103816107483660046139b1565b61182e565b6103a47f000000000000000000000000000000000000000000000000000000000000000081565b6103c061183c565b61036c61078a36600461397c565b6118e1565b6103c060365481565b6103c06107a6366004613a17565b61199a565b61036c6107b936600461397c565b6119b7565b6103a47f000000000000000000000000000000000000000000000000000000000000000081565b6103c06107f3366004613a80565b6001600160a01b03918216600090815260036020908152604080832093909416825291909152205490565b61036c61082c36600461397c565b611a54565b61036c611ba5565b61036c610847366004613a17565b611dc5565b61036c61085a366004613a17565b611f02565b61087261086d366004613a17565b611fe4565b60408051928352602083019190915201610350565b61036c6120be565b61036c61089d366004613a17565b61230c565b61036c6108b036600461397c565b612395565b6060600580546108c490613aaa565b80601f01602080910402602001604051908101604052809291908181526020018280546108f090613aaa565b801561093d5780601f106109125761010080835404028352916020019161093d565b820191906000526020600020905b81548152906001019060200180831161092057829003601f168201915b5050505050905090565b6001546001600160a01b031633146109a65760405162461bcd60e51b815260206004820181905260248201527f4f776e61626c653a2063616c6c6572206973206e6f7420746865206f776e657260448201526064015b60405180910390fd5b60115460ff16156109f95760405162461bcd60e51b815260206004820152601160248201527f726f756e6420696e2070726f6772657373000000000000000000000000000000604482015260640161099d565b6010544211610a4a5760405162461bcd60e51b815260206004820181905260248201527f44656c6179206265747765656e20726f756e6473206e6f7420656c6170736564604482015260640161099d565b6033546040517fae74fc4d000000000000000000000000000000000000000000000000000000008152600481018390526001600160a01b039091169063ae74fc4d90602401600060405180830381600087803b158015610aa957600080fd5b505af1158015610abd573d6000803e3d6000fd5b50505050600080610acf60355461251c565b600d80546001600160681b0384166201000081026effffffffffffffffffffffffff00001983168117909355600e8590556011805460ff1916600117905560358490556040805161ffff9485169490931693909317825260208201529294509092507f2f93a032ac7d7eee7307fc88610b447c5f48ae62c15f146b43168c282fa9490a910160405180910390a1505050565b600033610b6f818585612614565b60019150505b92915050565b600033610b8985828561276d565b610b948585856127ff565b60019150505b9392505050565b6001546001600160a01b03163314610bfb5760405162461bcd60e51b815260206004820181905260248201527f4f776e61626c653a2063616c6c6572206973206e6f7420746865206f776e6572604482015260640161099d565b6033546001600160a01b031615610cb55760335460405163095ea7b360e01b81526001600160a01b039182166004820152600060248201527f00000000000000000000000000000000000000000000000000000000000000009091169063095ea7b390604401602060405180830381600087803b158015610c7b57600080fd5b505af1158015610c8f573d6000803e3d6000fd5b505050506040513d601f19601f82011682018060405250810190610cb39190613ae5565b505b6033805473ffffffffffffffffffffffffffffffffffffffff19166001600160a01b0383811691821790925560405163095ea7b360e01b8152600481019190915260001960248201527f00000000000000000000000000000000000000000000000000000000000000009091169063095ea7b390604401602060405180830381600087803b158015610d4657600080fd5b505af1158015610d5a573d6000803e3d6000fd5b505050506040513d601f19601f82011682018060405250810190610d7e9190613ae5565b506040516001600160a01b03821681527f4da9c22c924692646a21cf1f423781ae3285198dc22e8a6912835d3272b90b3c906020015b60405180910390a150565b60026000541415610e125760405162461bcd60e51b815260206004820152601f60248201527f5265656e7472616e637947756172643a207265656e7472616e742063616c6c00604482015260640161099d565b600260005581610e4e5760405162461bcd60e51b815260206004820152600760248201526608585b5bdd5b9d60ca1b604482015260640161099d565b6001600160a01b038116610ea45760405162461bcd60e51b815260206004820152600960248201527f216372656469746f720000000000000000000000000000000000000000000000604482015260640161099d565b610eae8282612a16565b600c54610ec6906001600160a01b0316333085612c82565b50506001600055565b3360008181526003602090815260408083206001600160a01b0387168452909152812054909190610b6f9082908690610f09908790613b1d565b612614565b600b5460009060ff1681610f3e610f2460045490565b610f2c61183c565b600f546001600160801b031685612d33565b9050610f53610f4c8561199a565b8284612d7a565b949350505050565b6001546001600160a01b03163314610fb55760405162461bcd60e51b815260206004820181905260248201527f4f776e61626c653a2063616c6c6572206973206e6f7420746865206f776e6572604482015260640161099d565b600081116110055760405162461bcd60e51b815260206004820152600760248201527f216e657743617000000000000000000000000000000000000000000000000000604482015260640161099d565b600b54604080516101009092046001600160681b031682526020820183905233908201527f0e45875b8819e52adac9df2787285bc765235018d84ab492668edfcf944628c49060600160405180910390a161105f816124c5565b600b80546001600160681b03909216610100026dffffffffffffffffffffffffff0019909216919091179055565b600260005414156110e05760405162461bcd60e51b815260206004820152601f60248201527f5265656e7472616e637947756172643a207265656e7472616e742063616c6c00604482015260640161099d565b600260009081556110f2906001612dea565b6001600055565b6001546001600160a01b031633146111535760405162461bcd60e51b815260206004820181905260248201527f4f776e61626c653a2063616c6c6572206973206e6f7420746865206f776e6572604482015260640161099d565b611161620f42406064613b35565b81106111af5760405162461bcd60e51b815260206004820152601760248201527f496e76616c696420706572666f726d616e636520666565000000000000000000604482015260640161099d565b60135460408051918252602082018390527f24867dfb6fcb9970a07be21024956524abe7a1837faa903ff0e99aaa40cf893e910160405180910390a1601355565b6001546001600160a01b0316331461124a5760405162461bcd60e51b815260206004820181905260248201527f4f776e61626c653a2063616c6c6572206973206e6f7420746865206f776e6572604482015260640161099d565b6112546000612fdd565b565b6033546034546040517f7083a90400000000000000000000000000000000000000000000000000000000815260048101859052602481018490526001600160a01b039182166044820152911690637083a90490606401600060405180830381600087803b1580156112c657600080fd5b505af11580156112da573d6000803e3d6000fd5b505050505050565b600260005414156113355760405162461bcd60e51b815260206004820152601f60248201527f5265656e7472616e637947756172643a207265656e7472616e742063616c6c00604482015260640161099d565b6002600055806113745760405162461bcd60e51b815260206004820152600a602482015269216e756d53686172657360b01b604482015260640161099d565b336000908152600860205260409020546201000090046001600160681b03161515806113be575033600090815260086020526040902054600160781b90046001600160801b031615155b156113cf576113cf60006001612dea565b600d54336000818152600a60209081526040918290208054835187815261ffff96871693810184905292959194911685149290917f0c53c82ad07e2d592d88ece3b066777dd60f1118e2a081b380efc4358f0d9e2a910160405180910390a281546201000090046001600160801b031660008215611458576114518683613b1d565b90506114c7565b81156114a65760405162461bcd60e51b815260206004820152601160248201527f4578697374696e67207769746864726177000000000000000000000000000000604482015260640161099d565b50336000908152600a60205260409020805461ffff191661ffff8616179055845b6114d08161303c565b336000908152600a6020526040812080546001600160801b03808516620100000271ffffffffffffffffffffffffffffffff00001990921691909117909155600f54611525918991600160801b900416613b1d565b90506115308161303c565b600f80546001600160801b03808416600160801b0291161790556115553330896127ff565b505060016000555050505050565b6060600680546108c490613aaa565b60006115a261158060045490565b61158861183c565b600f54600b546001600160801b039091169060ff16612d33565b905090565b3360008181526003602090815260408083206001600160a01b0387168452909152812054909190838110156116445760405162461bcd60e51b815260206004820152602560248201527f45524332303a2064656372656173656420616c6c6f77616e63652062656c6f7760448201527f207a65726f000000000000000000000000000000000000000000000000000000606482015260840161099d565b6116518286868403612614565b506001949350505050565b6001546001600160a01b031633146116b65760405162461bcd60e51b815260206004820181905260248201527f4f776e61626c653a2063616c6c6572206973206e6f7420746865206f776e6572604482015260640161099d565b60115460ff166116f75760405162461bcd60e51b815260206004820152600c60248201526b1c9bdd5b990818db1bdcd95960a21b604482015260640161099d565b600d80546000600e557fffffffff0000000000000000000000000000000000000000000000000000ffff8116620100009091046001600160681b0316600160781b81026effffffffffffffffffffffffff00001916919091179091556117606201518042613b1d565b6010556011805460ff191690556033546034546040517f7dd0db1b0000000000000000000000000000000000000000000000000000000081526001600160a01b039182166004820152911690637dd0db1b90602401600060405180830381600087803b1580156117cf57600080fd5b505af11580156117e3573d6000803e3d6000fd5b5050600d546040805161ffff90921682526001600160681b03851660208301527f72a38b5b2905463b2dd317993b07770e582b99731092f75150f433b6a9f9c89e9350019050610db4565b600033610b6f8185856127ff565b600c546040516370a0823160e01b81523060048201526000916001600160a01b0316906370a082319060240160206040518083038186803b15801561188057600080fd5b505afa158015611894573d6000803e3d6000fd5b505050506040513d601f19601f820116820180604052508101906118b89190613b54565b600e54600d546118d791906201000090046001600160681b0316613b6d565b6115a29190613b1d565b600260005414156119345760405162461bcd60e51b815260206004820152601f60248201527f5265656e7472616e637947756172643a207265656e7472616e742063616c6c00604482015260640161099d565b6002600055806119705760405162461bcd60e51b815260206004820152600760248201526608585b5bdd5b9d60ca1b604482015260640161099d565b61197a8133612a16565b600c54611992906001600160a01b0316333084612c82565b506001600055565b60008060006119a884611fe4565b9092509050610f538183613b1d565b60026000541415611a0a5760405162461bcd60e51b815260206004820152601f60248201527f5265656e7472616e637947756172643a207265656e7472616e742063616c6c00604482015260640161099d565b600260005580611a495760405162461bcd60e51b815260206004820152600a602482015269216e756d53686172657360b01b604482015260640161099d565b611992816000612dea565b60115460ff16611a955760405162461bcd60e51b815260206004820152600c60248201526b1c9bdd5b990818db1bdcd95960a21b604482015260640161099d565b6033546034546040517fa8c379c2000000000000000000000000000000000000000000000000000000008152600481018490526001600160a01b0391821660248201526000928392839291169063a8c379c290604401606060405180830381600087803b158015611b0557600080fd5b505af1158015611b19573d6000803e3d6000fd5b505050506040513d601f19601f82011682018060405250810190611b3d9190613b84565b92509250925080600d60010154611b549190613b6d565b600e556040805133815260208101859052908101839052606081018290527f150edd20b748bc680273d4bc59d5659c3229edf2f102c013595b9b3238e158869060800160405180910390a150505050565b603354604080517f03c4d3d6000000000000000000000000000000000000000000000000000000008152905142926001600160a01b0316916303c4d3d69160048083019260209291908290030181600087803b158015611c0457600080fd5b505af1158015611c18573d6000803e3d6000fd5b505050506040513d601f19601f82011682018060405250810190611c3c9190613b54565b10611caf5760405162461bcd60e51b815260206004820152602760248201527f63616e6e6f7420636c6f736520726f756e6420696620626f617264206e6f742060448201527f6578706972656400000000000000000000000000000000000000000000000000606482015260840161099d565b60115460ff16611cf05760405162461bcd60e51b815260206004820152600c60248201526b1c9bdd5b990818db1bdcd95960a21b604482015260640161099d565b600d80546000600e557fffffffff0000000000000000000000000000000000000000000000000000ffff8116620100009091046001600160681b0316600160781b81026effffffffffffffffffffffffff0000191691909117909155611d596201518042613b1d565b6010556011805460ff19169055603354604080517f83cea54200000000000000000000000000000000000000000000000000000000815290516001600160a01b03909216916383cea5429160048181019260009290919082900301818387803b1580156117cf57600080fd5b6001546001600160a01b03163314611e1f5760405162461bcd60e51b815260206004820181905260248201527f4f776e61626c653a2063616c6c6572206973206e6f7420746865206f776e6572604482015260640161099d565b6001600160a01b038116611e755760405162461bcd60e51b815260206004820152601060248201527f216e6577466565526563697069656e7400000000000000000000000000000000604482015260640161099d565b6012546001600160a01b0382811691161415611ed35760405162461bcd60e51b815260206004820152601860248201527f4d757374206265206e657720666565526563697069656e740000000000000000604482015260640161099d565b6012805473ffffffffffffffffffffffffffffffffffffffff19166001600160a01b0392909216919091179055565b6001546001600160a01b03163314611f5c5760405162461bcd60e51b815260206004820181905260248201527f4f776e61626c653a2063616c6c6572206973206e6f7420746865206f776e6572604482015260640161099d565b6001600160a01b038116611fd85760405162461bcd60e51b815260206004820152602660248201527f4f776e61626c653a206e6577206f776e657220697320746865207a65726f206160448201527f6464726573730000000000000000000000000000000000000000000000000000606482015260840161099d565b611fe181612fdd565b50565b6001600160a01b03811660009081526008602090815260408083208151606081018352905461ffff81168083526201000082046001600160681b031694830194909452600160781b90046001600160801b0316918101919091528291612062575050506001600160a01b031660009081526002602052604081205491565b600d54815161ffff908116600090815260096020526040812054600b5491936120939386939116919060ff16613093565b90506120b4856001600160a01b031660009081526002602052604090205490565b9590945092505050565b600260005414156121115760405162461bcd60e51b815260206004820152601f60248201527f5265656e7472616e637947756172643a207265656e7472616e742063616c6c00604482015260640161099d565b60026000908155338152600a6020526040902080546001600160801b03620100008204169061ffff16816121875760405162461bcd60e51b815260206004820152600d60248201527f4e6f7420696e6974696174656400000000000000000000000000000000000000604482015260640161099d565b600d5461ffff1681106121dc5760405162461bcd60e51b815260206004820152601160248201527f526f756e6420696e2070726f6772657373000000000000000000000000000000604482015260640161099d565b336000908152600a60205260409020805471ffffffffffffffffffffffffffffffff000019169055600f54612222908390600160801b90046001600160801b0316613b6d565b600f80546001600160801b03928316600160801b029216919091179055600081815260096020526040812054600b5461225f91859160ff16612d7a565b604080518281526020810186905291925033917ff279e6a1f5e320cca91135676d9cb6e44ca8a08c0b88342bcdb1144f6511b568910160405180910390a26122a73084613104565b600081116122f75760405162461bcd60e51b815260206004820152600f60248201527f217769746864726177416d6f756e740000000000000000000000000000000000604482015260640161099d565b6123013382613286565b505060016000555050565b6001546001600160a01b031633146123665760405162461bcd60e51b815260206004820181905260248201527f4f776e61626c653a2063616c6c6572206973206e6f7420746865206f776e6572604482015260640161099d565b6034805473ffffffffffffffffffffffffffffffffffffffff19166001600160a01b0392909216919091179055565b6001546001600160a01b031633146123ef5760405162461bcd60e51b815260206004820181905260248201527f4f776e61626c653a2063616c6c6572206973206e6f7420746865206f776e6572604482015260640161099d565b6123fd620f42406064613b35565b811061244b5760405162461bcd60e51b815260206004820152601660248201527f496e76616c6964206d616e6167656d656e742066656500000000000000000000604482015260640161099d565b60145460408051918252602082018390527f4e874b007ab14f7e263baefd44951834c8266f4f224d1092e49e9c254354cc54910160405180910390a17f00000000000000000000000000000000000000000000000000000000000000006124b5620f424083613b35565b6124bf9190613bb2565b60145550565b6001600160681b03811115611fe15760405162461bcd60e51b815260206004820152601060248201527f4f766572666c6f772075696e7431303400000000000000000000000000000000604482015260640161099d565b60008060008060008061256561253160045490565b600c54600b54600f546001600160a01b039092169160ff909116906001600160801b0380821691600160801b90041661329d565b600d5461ffff1660008181526009602052604081208490559498509296509094509250908885116125975760006125a1565b6125a18986613b6d565b90506125b56125b08288613b1d565b613388565b6125bf9087613b6d565b600f80546fffffffffffffffffffffffffffffffff1916905595506125e5826001613b1d565b600d805461ffff191661ffff92909216919091179055612605308461341e565b50939792965091945050505050565b6001600160a01b03831661268f5760405162461bcd60e51b8152602060048201526024808201527f45524332303a20617070726f76652066726f6d20746865207a65726f2061646460448201527f7265737300000000000000000000000000000000000000000000000000000000606482015260840161099d565b6001600160a01b03821661270b5760405162461bcd60e51b815260206004820152602260248201527f45524332303a20617070726f766520746f20746865207a65726f20616464726560448201527f7373000000000000000000000000000000000000000000000000000000000000606482015260840161099d565b6001600160a01b0383811660008181526003602090815260408083209487168084529482529182902085905590518481527f8c5be1e5ebec7d5bd14f71427d1e84f3dd0314c0f7b2291e5b200ac8c7c3b92591015b60405180910390a3505050565b6001600160a01b0383811660009081526003602090815260408083209386168352929052205460001981146127f957818110156127ec5760405162461bcd60e51b815260206004820152601d60248201527f45524332303a20696e73756666696369656e7420616c6c6f77616e6365000000604482015260640161099d565b6127f98484848403612614565b50505050565b6001600160a01b03831661287b5760405162461bcd60e51b815260206004820152602560248201527f45524332303a207472616e736665722066726f6d20746865207a65726f20616460448201527f6472657373000000000000000000000000000000000000000000000000000000606482015260840161099d565b6001600160a01b0382166128f75760405162461bcd60e51b815260206004820152602360248201527f45524332303a207472616e7366657220746f20746865207a65726f206164647260448201527f6573730000000000000000000000000000000000000000000000000000000000606482015260840161099d565b6001600160a01b038316600090815260026020526040902054818110156129865760405162461bcd60e51b815260206004820152602660248201527f45524332303a207472616e7366657220616d6f756e742065786365656473206260448201527f616c616e63650000000000000000000000000000000000000000000000000000606482015260840161099d565b6001600160a01b038085166000908152600260205260408082208585039055918516815290812080548492906129bd908490613b1d565b92505081905550826001600160a01b0316846001600160a01b03167fddf252ad1be2c89b69c2b068fc378daa952ba7f163c4a11628f55a4df523b3ef84604051612a0991815260200190565b60405180910390a36127f9565b600d5461ffff16600083612a2861183c565b612a329190613b1d565b600b5490915061010090046001600160681b0316811115612a955760405162461bcd60e51b815260206004820152600a60248201527f4578636565642063617000000000000000000000000000000000000000000000604482015260640161099d565b60408051858152602081018490526001600160a01b038516917f90890809c654f11d6e72a28fa60149770a0d11ec6c92319d6ceb2bb0a4ea1a15910160405180910390a26001600160a01b03831660009081526008602090815260408083208151606081018352905461ffff81168083526201000082046001600160681b031683860152600160781b9091046001600160801b03168284015284526009909252822054600b54919291612b4f91849187919060ff16613093565b8251909150869061ffff16851415612b805760008784602001516001600160681b0316612b7c9190613b1d565b9150505b612b89816124c5565b6040805160608101825261ffff80881682526001600160681b0380851660208085019182526001600160801b038089168688019081526001600160a01b038e166000908152600890935296822095518654935197518216600160781b027fff00000000000000000000000000000000ffffffffffffffffffffffffffffff9890951662010000026effffffffffffffffffffffffffffff19909416951694909417919091179490941617909155600f54612c45918a9116613b1d565b9050612c508161303c565b600f80546fffffffffffffffffffffffffffffffff19166001600160801b039290921691909117905550505050505050565b6040516001600160a01b03808516602483015283166044820152606481018290526127f99085907f23b872dd00000000000000000000000000000000000000000000000000000000906084015b60408051601f198184030181529190526020810180517bffffffffffffffffffffffffffffffffffffffffffffffffffffffff167fffffffff00000000000000000000000000000000000000000000000000000000909316929092179091526134fd565b600080612d4183600a613cb8565b905060008611612d515780612d70565b85612d5c8587613b6d565b612d669083613b35565b612d709190613bb2565b9695505050505050565b6000808311612dcb5760405162461bcd60e51b815260206004820152601560248201527f496e76616c696420617373657450657253686172650000000000000000000000604482015260640161099d565b612dd682600a613cb8565b612de08486613b35565b610f539190613bb2565b3360009081526008602090815260408083208151606081018352905461ffff8082168084526201000083046001600160681b031684870152600160781b9092046001600160801b031683850152600d54918652600990945291842054600b5491949290931692612e60918591859160ff16613093565b905083612e6d5784612e6f565b805b945084612e7d575050505050565b80851115612ecd5760405162461bcd60e51b815260206004820152601160248201527f4578636565647320617661696c61626c65000000000000000000000000000000604482015260640161099d565b825161ffff168211612ee3578260200151612ee6565b60005b33600090815260086020526040902080546001600160681b039290921662010000026effffffffffffffffffffffffff000019909216919091179055612f2b8561303c565b612f358582613b6d565b336000818152600860205260409081902080546001600160801b0394909416600160781b027fff00000000000000000000000000000000ffffffffffffffffffffffffffffff909416939093179092558451915190917fe5b754fb1abb7f01b499791d0b820ae3b6af3424ac1c59768edb53f4ec31a92991612fc39189825261ffff16602082015260400190565b60405180910390a2612fd63033876127ff565b5050505050565b600180546001600160a01b0383811673ffffffffffffffffffffffffffffffffffffffff19831681179093556040519116919082907f8be0079c531659141344cd1fd0a4f28419497f9722a3daafe3b4186f6b6457e090600090a35050565b6001600160801b03811115611fe15760405162461bcd60e51b815260206004820152601060248201527f4f766572666c6f772075696e7431323800000000000000000000000000000000604482015260640161099d565b835160009061ffff16158015906130ae5750845161ffff1684115b156130f05760006130cd86602001516001600160681b031685856135e2565b90508086604001516001600160801b03166130e89190613b1d565b915050610f53565b50505050604001516001600160801b031690565b6001600160a01b0382166131805760405162461bcd60e51b815260206004820152602160248201527f45524332303a206275726e2066726f6d20746865207a65726f2061646472657360448201527f7300000000000000000000000000000000000000000000000000000000000000606482015260840161099d565b6001600160a01b0382166000908152600260205260409020548181101561320f5760405162461bcd60e51b815260206004820152602260248201527f45524332303a206275726e20616d6f756e7420657863656564732062616c616e60448201527f6365000000000000000000000000000000000000000000000000000000000000606482015260840161099d565b6001600160a01b038316600090815260026020526040812083830390556004805484929061323e908490613b6d565b90915550506040518281526000906001600160a01b038516907fddf252ad1be2c89b69c2b068fc378daa952ba7f163c4a11628f55a4df523b3ef90602001612760565b505050565b600c546001600160a01b0316613281818484613649565b6040516370a0823160e01b815230600482015260009081908190819081906001600160a01b038a16906370a082319060240160206040518083038186803b1580156132e757600080fd5b505afa1580156132fb573d6000803e3d6000fd5b505050506040513d601f19601f8201168201806040525081019061331f9190613b54565b905061332d8a82898b612d33565b9250600061333c88858b6135e2565b9050600061334a8c83613692565b9050600080821161335c576000613367565b61336789878d612d7a565b9050613373848261369e565b97509550909250505095509550955095915050565b600080600061339e600d856013546014546136aa565b92505091506000811115610b9a576012546133c2906001600160a01b031682613286565b601254600d54604080518581526020810185905261ffff90921682820152516001600160a01b03909216917f0a242f7ecaf711036ca770774ceffae28e60ef042ac113ddd187f2631db0c0069181900360600190a29392505050565b6001600160a01b0382166134745760405162461bcd60e51b815260206004820152601f60248201527f45524332303a206d696e7420746f20746865207a65726f206164647265737300604482015260640161099d565b80600460008282546134869190613b1d565b90915550506001600160a01b038216600090815260026020526040812080548392906134b3908490613b1d565b90915550506040518181526001600160a01b038316906000907fddf252ad1be2c89b69c2b068fc378daa952ba7f163c4a11628f55a4df523b3ef9060200160405180910390a35050565b6000613552826040518060400160405280602081526020017f5361666545524332303a206c6f772d6c6576656c2063616c6c206661696c6564815250856001600160a01b03166137759092919063ffffffff16565b80519091501561328157808060200190518101906135709190613ae5565b6132815760405162461bcd60e51b815260206004820152602a60248201527f5361666545524332303a204552433230206f7065726174696f6e20646964206e60448201527f6f74207375636365656400000000000000000000000000000000000000000000606482015260840161099d565b60008083116136335760405162461bcd60e51b815260206004820152601560248201527f496e76616c696420617373657450657253686172650000000000000000000000604482015260640161099d565b8261363f83600a613cb8565b612de09086613b35565b6040516001600160a01b0383166024820152604481018290526132819084907fa9059cbb0000000000000000000000000000000000000000000000000000000090606401612ccf565b6000610b9a8284613b1d565b6000610b9a8284613b6d565b8354600285015460009182918291600160781b90046001600160681b03169082906136df9089906001600160801b031661369e565b90506000806000848411156137635760008a116136fd576000613728565b61372861370e620f42406064613b35565b6137228c61371c888a61369e565b90613784565b90613790565b925060008911613739576000613754565b61375461374a620f42406064613b35565b613722868c613784565b91506137608383613692565b90505b919b909a509098509650505050505050565b6060610f53848460008561379c565b6000610b9a8284613b35565b6000610b9a8284613bb2565b6060824710156138145760405162461bcd60e51b815260206004820152602660248201527f416464726573733a20696e73756666696369656e742062616c616e636520666f60448201527f722063616c6c0000000000000000000000000000000000000000000000000000606482015260840161099d565b6001600160a01b0385163b61386b5760405162461bcd60e51b815260206004820152601d60248201527f416464726573733a2063616c6c20746f206e6f6e2d636f6e7472616374000000604482015260640161099d565b600080866001600160a01b031685876040516138879190613cc4565b60006040518083038185875af1925050503d80600081146138c4576040519150601f19603f3d011682016040523d82523d6000602084013e6138c9565b606091505b50915091506138d98282866138e4565b979650505050505050565b606083156138f3575081610b9a565b8251156139035782518084602001fd5b8160405162461bcd60e51b815260040161099d9190613949565b60005b83811015613938578181015183820152602001613920565b838111156127f95750506000910152565b602081526000825180602084015261396881604085016020870161391d565b601f01601f19169190910160400192915050565b60006020828403121561398e57600080fd5b5035919050565b80356001600160a01b03811681146139ac57600080fd5b919050565b600080604083850312156139c457600080fd5b6139cd83613995565b946020939093013593505050565b6000806000606084860312156139f057600080fd5b6139f984613995565b9250613a0760208501613995565b9150604084013590509250925092565b600060208284031215613a2957600080fd5b610b9a82613995565b60008060408385031215613a4557600080fd5b82359150613a5560208401613995565b90509250929050565b60008060408385031215613a7157600080fd5b50508035926020909101359150565b60008060408385031215613a9357600080fd5b613a9c83613995565b9150613a5560208401613995565b600181811c90821680613abe57607f821691505b60208210811415613adf57634e487b7160e01b600052602260045260246000fd5b50919050565b600060208284031215613af757600080fd5b81518015158114610b9a57600080fd5b634e487b7160e01b600052601160045260246000fd5b60008219821115613b3057613b30613b07565b500190565b6000816000190483118215151615613b4f57613b4f613b07565b500290565b600060208284031215613b6657600080fd5b5051919050565b600082821015613b7f57613b7f613b07565b500390565b600080600060608486031215613b9957600080fd5b8351925060208401519150604084015190509250925092565b600082613bcf57634e487b7160e01b600052601260045260246000fd5b500490565b600181815b80851115613c0f578160001904821115613bf557613bf5613b07565b80851615613c0257918102915b93841c9390800290613bd9565b509250929050565b600082613c2657506001610b75565b81613c3357506000610b75565b8160018114613c495760028114613c5357613c6f565b6001915050610b75565b60ff841115613c6457613c64613b07565b50506001821b610b75565b5060208310610133831016604e8410600b8410161715613c92575081810a610b75565b613c9c8383613bd4565b8060001904821115613cb057613cb0613b07565b029392505050565b6000610b9a8383613c17565b60008251613cd681846020870161391d565b919091019291505056fea2646970667358221220046ef2e1b48bb6932b133587146bd43f939cc3fd7e4ed308a50e8d4b15d044d464736f6c63430008090033",
  "devdoc": {
    "kind": "dev",
    "methods": {
      "accountVaultBalance(address)": {
        "params": {
          "account": "is the address to lookup balance for"
        },
        "returns": {
          "_0": "the amount of `asset` custodied by the vault for the user"
        }
      },
      "allowance(address,address)": {
        "details": "See {IERC20-allowance}."
      },
      "approve(address,uint256)": {
        "details": "See {IERC20-approve}. NOTE: If `amount` is the maximum `uint256`, the allowance is not updated on `transferFrom`. This is semantically equivalent to an infinite approval. Requirements: - `spender` cannot be the zero address."
      },
      "balanceOf(address)": {
        "details": "See {IERC20-balanceOf}."
      },
      "closeRound()": {
        "details": "close the current round, enable user to deposit for the next round"
      },
      "decreaseAllowance(address,uint256)": {
        "details": "Atomically decreases the allowance granted to `spender` by the caller. This is an alternative to {approve} that can be used as a mitigation for problems described in {IERC20-approve}. Emits an {Approval} event indicating the updated allowance. Requirements: - `spender` cannot be the zero address. - `spender` must have allowance for the caller of at least `subtractedValue`."
      },
      "deposit(uint256)": {
        "params": {
          "amount": "is the amount of `asset` to deposit"
        }
      },
      "depositFor(uint256,address)": {
        "params": {
          "amount": "is the amount of `asset` to deposit",
          "creditor": "is the address that can claim/withdraw deposited amount"
        }
      },
      "emergencyCloseRound()": {
        "details": "Close the current round, enable user to deposit for the next round"
      },
      "increaseAllowance(address,uint256)": {
        "details": "Atomically increases the allowance granted to `spender` by the caller. This is an alternative to {approve} that can be used as a mitigation for problems described in {IERC20-approve}. Emits an {Approval} event indicating the updated allowance. Requirements: - `spender` cannot be the zero address."
      },
      "initiateWithdraw(uint256)": {
        "params": {
          "numShares": "is the number of shares to withdraw"
        }
      },
      "name()": {
        "details": "Returns the name of the token."
      },
      "owner()": {
        "details": "Returns the address of the current owner."
      },
      "redeem(uint256)": {
        "params": {
          "numShares": "is the number of shares to redeem"
        }
      },
      "reducePosition(uint256,uint256)": {
        "details": "anyone close part of the position with premium made by the strategy if a position is dangerous",
        "params": {
          "positionId": "the positiion to close"
        }
      },
      "renounceOwnership()": {
        "details": "Leaves the contract without owner. It will not be possible to call `onlyOwner` functions anymore. Can only be called by the current owner. NOTE: Renouncing ownership will leave the contract without an owner, thereby removing any functionality that is only available to the owner."
      },
      "setCap(uint256)": {
        "params": {
          "newCap": "is the new cap for deposits"
        }
      },
      "setFeeRecipient(address)": {
        "params": {
          "newFeeRecipient": "is the address of the new fee recipient"
        }
      },
      "setLyraRewardRecipient(address)": {
        "params": {
          "recipient": "recipient address"
        }
      },
      "setManagementFee(uint256)": {
        "params": {
          "newManagementFee": "is the management fee (6 decimals). ex: 2 * 10 ** 6 = 2%"
        }
      },
      "setPerformanceFee(uint256)": {
        "params": {
          "newPerformanceFee": "is the performance fee (6 decimals). ex: 20 * 10 ** 6 = 20%"
        }
      },
      "setStrategy(address)": {
        "details": "set strategy contract. This function can only be called by owner.",
        "params": {
          "_strategy": "new strategy contract address"
        }
      },
      "shareBalances(address)": {
        "params": {
          "account": "is the account to lookup share balance for"
        },
        "returns": {
          "heldByAccount": "is the shares held by account",
          "heldByVault": "is the shares held on the vault (unredeemedShares)"
        }
      },
      "shares(address)": {
        "params": {
          "account": "is the account to lookup share balance for"
        },
        "returns": {
          "_0": "the share balance"
        }
      },
      "startNextRound(uint256)": {
        "params": {
          "boardId": "board id (asset + expiry) for next round."
        }
      },
      "symbol()": {
        "details": "Returns the symbol of the token, usually a shorter version of the name."
      },
      "totalBalance()": {
        "returns": {
          "_0": "total balance of the vault, including the amounts locked in third party protocols"
        }
      },
      "totalSupply()": {
        "details": "See {IERC20-totalSupply}."
      },
      "trade(uint256)": {
        "details": "anyone can trigger a trade",
        "params": {
          "strikeId": "the strike id to sell"
        }
      },
      "transfer(address,uint256)": {
        "details": "See {IERC20-transfer}. Requirements: - `to` cannot be the zero address. - the caller must have a balance of at least `amount`."
      },
      "transferFrom(address,address,uint256)": {
        "details": "See {IERC20-transferFrom}. Emits an {Approval} event indicating the updated allowance. This is not required by the EIP. See the note at the beginning of {ERC20}. NOTE: Does not update the allowance if the current allowance is the maximum `uint256`. Requirements: - `from` and `to` cannot be the zero address. - `from` must have a balance of at least `amount`. - the caller must have allowance for ``from``'s tokens of at least `amount`."
      },
      "transferOwnership(address)": {
        "details": "Transfers ownership of the contract to a new account (`newOwner`). Can only be called by the current owner."
      }
    },
    "version": 1
  },
  "userdoc": {
    "kind": "user",
    "methods": {
      "accountVaultBalance(address)": {
        "notice": "Returns the asset balance held on the vault for the account"
      },
      "completeWithdraw()": {
        "notice": "Completes a scheduled withdrawal from a past round. Uses finalized pps for the round"
      },
      "decimals()": {
        "notice": "Returns the token decimals"
      },
      "deposit(uint256)": {
        "notice": "Deposits the `asset` from msg.sender."
      },
      "depositFor(uint256,address)": {
        "notice": "Deposits the `asset` from msg.sender added to `creditor`'s deposit.Used for vault -> vault deposits on the user's behalf"
      },
      "depositReceipts(address)": {
        "notice": "Stores the user's pending deposit for the round"
      },
      "feeRecipient()": {
        "notice": "Fee recipient for the performance and management fees"
      },
      "initiateWithdraw(uint256)": {
        "notice": "Initiates a withdrawal that can be processed once the round completes"
      },
      "managementFee()": {
        "notice": "Management fee charged on entire AUM in rollToNextOption. Only charged when there is no loss."
      },
      "maxRedeem()": {
        "notice": "Redeems the entire unredeemedShares balance that is owed to the account"
      },
      "performanceFee()": {
        "notice": "Performance fee charged on premiums earned in rollToNextOption. Only charged when there is no loss."
      },
      "pricePerShare()": {
        "notice": "The price of a unit of share denominated in the `asset`"
      },
      "redeem(uint256)": {
        "notice": "Redeems shares that are owed to the account"
      },
      "roundPricePerShare(uint256)": {
        "notice": "On every round's close, the pricePerShare value of an rTHETA token is stored This is used to determine the number of shares to be returned to a user with their DepositReceipt.depositAmount"
      },
      "setCap(uint256)": {
        "notice": "Sets a new cap for deposits"
      },
      "setFeeRecipient(address)": {
        "notice": "Sets the new fee recipient"
      },
      "setLyraRewardRecipient(address)": {
        "notice": "set set new address to receive Lyra trading reward on behalf of the vault"
      },
      "setManagementFee(uint256)": {
        "notice": "Sets the management fee for the vault"
      },
      "setPerformanceFee(uint256)": {
        "notice": "Sets the performance fee for the vault"
      },
      "shareBalances(address)": {
        "notice": "Getter for returning the account's share balance split between account and vault holdings"
      },
      "shares(address)": {
        "notice": "Getter for returning the account's share balance including unredeemed shares"
      },
      "startNextRound(uint256)": {
        "notice": "start the next round"
      },
      "totalBalance()": {
        "notice": "Returns the vault's total balance, including the amounts locked into a short position"
      },
      "vaultParams()": {
        "notice": "Vault's parameters like cap, decimals"
      },
      "vaultState()": {
        "notice": "Vault's lifecycle state like round and locked amounts"
      },
      "withdrawals(address)": {
        "notice": "Stores pending user withdrawals"
      }
    },
    "notice": "LyraVault help users run option-selling strategies on Lyra AMM.",
    "version": 1
  },
  "storageLayout": {
    "storage": [
      {
        "astId": 36472,
        "contract": "contracts/core/LyraVault.sol:LyraVault",
        "label": "_status",
        "offset": 0,
        "slot": "0",
        "type": "t_uint256"
      },
      {
        "astId": 36290,
        "contract": "contracts/core/LyraVault.sol:LyraVault",
        "label": "_owner",
        "offset": 0,
        "slot": "1",
        "type": "t_address"
      },
      {
        "astId": 36517,
        "contract": "contracts/core/LyraVault.sol:LyraVault",
        "label": "_balances",
        "offset": 0,
        "slot": "2",
        "type": "t_mapping(t_address,t_uint256)"
      },
      {
        "astId": 36523,
        "contract": "contracts/core/LyraVault.sol:LyraVault",
        "label": "_allowances",
        "offset": 0,
        "slot": "3",
        "type": "t_mapping(t_address,t_mapping(t_address,t_uint256))"
      },
      {
        "astId": 36525,
        "contract": "contracts/core/LyraVault.sol:LyraVault",
        "label": "_totalSupply",
        "offset": 0,
        "slot": "4",
        "type": "t_uint256"
      },
      {
        "astId": 36527,
        "contract": "contracts/core/LyraVault.sol:LyraVault",
        "label": "_name",
        "offset": 0,
        "slot": "5",
        "type": "t_string_storage"
      },
      {
        "astId": 36529,
        "contract": "contracts/core/LyraVault.sol:LyraVault",
        "label": "_symbol",
        "offset": 0,
        "slot": "6",
        "type": "t_string_storage"
      },
      {
        "astId": 36394,
        "contract": "contracts/core/LyraVault.sol:LyraVault",
        "label": "_initialized",
        "offset": 0,
        "slot": "7",
        "type": "t_bool"
      },
      {
        "astId": 36397,
        "contract": "contracts/core/LyraVault.sol:LyraVault",
        "label": "_initializing",
        "offset": 1,
        "slot": "7",
        "type": "t_bool"
      },
      {
        "astId": 38087,
        "contract": "contracts/core/LyraVault.sol:LyraVault",
        "label": "depositReceipts",
        "offset": 0,
        "slot": "8",
        "type": "t_mapping(t_address,t_struct(DepositReceipt)40266_storage)"
      },
      {
        "astId": 38092,
        "contract": "contracts/core/LyraVault.sol:LyraVault",
        "label": "roundPricePerShare",
        "offset": 0,
        "slot": "9",
        "type": "t_mapping(t_uint256,t_uint256)"
      },
      {
        "astId": 38098,
        "contract": "contracts/core/LyraVault.sol:LyraVault",
        "label": "withdrawals",
        "offset": 0,
        "slot": "10",
        "type": "t_mapping(t_address,t_struct(Withdrawal)40271_storage)"
      },
      {
        "astId": 38102,
        "contract": "contracts/core/LyraVault.sol:LyraVault",
        "label": "vaultParams",
        "offset": 0,
        "slot": "11",
        "type": "t_struct(VaultParams)40242_storage"
      },
      {
        "astId": 38106,
        "contract": "contracts/core/LyraVault.sol:LyraVault",
        "label": "vaultState",
        "offset": 0,
        "slot": "13",
        "type": "t_struct(VaultState)40259_storage"
      },
      {
        "astId": 38109,
        "contract": "contracts/core/LyraVault.sol:LyraVault",
        "label": "feeRecipient",
        "offset": 0,
        "slot": "18",
        "type": "t_address"
      },
      {
        "astId": 38112,
        "contract": "contracts/core/LyraVault.sol:LyraVault",
        "label": "performanceFee",
        "offset": 0,
        "slot": "19",
        "type": "t_uint256"
      },
      {
        "astId": 38115,
        "contract": "contracts/core/LyraVault.sol:LyraVault",
        "label": "managementFee",
        "offset": 0,
        "slot": "20",
        "type": "t_uint256"
      },
      {
        "astId": 38119,
        "contract": "contracts/core/LyraVault.sol:LyraVault",
        "label": "____gap",
        "offset": 0,
        "slot": "21",
        "type": "t_array(t_uint256)30_storage"
      },
      {
        "astId": 39371,
        "contract": "contracts/core/LyraVault.sol:LyraVault",
        "label": "strategy",
        "offset": 0,
        "slot": "51",
        "type": "t_contract(IStrategy)40017"
      },
      {
        "astId": 39373,
        "contract": "contracts/core/LyraVault.sol:LyraVault",
        "label": "lyraRewardRecipient",
        "offset": 0,
        "slot": "52",
        "type": "t_address"
      },
      {
        "astId": 39375,
        "contract": "contracts/core/LyraVault.sol:LyraVault",
        "label": "lastQueuedWithdrawAmount",
        "offset": 0,
        "slot": "53",
        "type": "t_uint256"
      },
      {
        "astId": 39377,
        "contract": "contracts/core/LyraVault.sol:LyraVault",
        "label": "optionAllocation",
        "offset": 0,
        "slot": "54",
        "type": "t_uint256"
      }
    ],
    "types": {
      "t_address": {
        "encoding": "inplace",
        "label": "address",
        "numberOfBytes": "20"
      },
      "t_array(t_uint256)30_storage": {
        "base": "t_uint256",
        "encoding": "inplace",
        "label": "uint256[30]",
        "numberOfBytes": "960"
      },
      "t_bool": {
        "encoding": "inplace",
        "label": "bool",
        "numberOfBytes": "1"
      },
      "t_contract(IStrategy)40017": {
        "encoding": "inplace",
        "label": "contract IStrategy",
        "numberOfBytes": "20"
      },
      "t_mapping(t_address,t_mapping(t_address,t_uint256))": {
        "encoding": "mapping",
        "key": "t_address",
        "label": "mapping(address => mapping(address => uint256))",
        "numberOfBytes": "32",
        "value": "t_mapping(t_address,t_uint256)"
      },
      "t_mapping(t_address,t_struct(DepositReceipt)40266_storage)": {
        "encoding": "mapping",
        "key": "t_address",
        "label": "mapping(address => struct Vault.DepositReceipt)",
        "numberOfBytes": "32",
        "value": "t_struct(DepositReceipt)40266_storage"
      },
      "t_mapping(t_address,t_struct(Withdrawal)40271_storage)": {
        "encoding": "mapping",
        "key": "t_address",
        "label": "mapping(address => struct Vault.Withdrawal)",
        "numberOfBytes": "32",
        "value": "t_struct(Withdrawal)40271_storage"
      },
      "t_mapping(t_address,t_uint256)": {
        "encoding": "mapping",
        "key": "t_address",
        "label": "mapping(address => uint256)",
        "numberOfBytes": "32",
        "value": "t_uint256"
      },
      "t_mapping(t_uint256,t_uint256)": {
        "encoding": "mapping",
        "key": "t_uint256",
        "label": "mapping(uint256 => uint256)",
        "numberOfBytes": "32",
        "value": "t_uint256"
      },
      "t_string_storage": {
        "encoding": "bytes",
        "label": "string",
        "numberOfBytes": "32"
      },
      "t_struct(DepositReceipt)40266_storage": {
        "encoding": "inplace",
        "label": "struct Vault.DepositReceipt",
        "members": [
          {
            "astId": 40261,
            "contract": "contracts/core/LyraVault.sol:LyraVault",
            "label": "round",
            "offset": 0,
            "slot": "0",
            "type": "t_uint16"
          },
          {
            "astId": 40263,
            "contract": "contracts/core/LyraVault.sol:LyraVault",
            "label": "amount",
            "offset": 2,
            "slot": "0",
            "type": "t_uint104"
          },
          {
            "astId": 40265,
            "contract": "contracts/core/LyraVault.sol:LyraVault",
            "label": "unredeemedShares",
            "offset": 15,
            "slot": "0",
            "type": "t_uint128"
          }
        ],
        "numberOfBytes": "32"
      },
      "t_struct(VaultParams)40242_storage": {
        "encoding": "inplace",
        "label": "struct Vault.VaultParams",
        "members": [
          {
            "astId": 40237,
            "contract": "contracts/core/LyraVault.sol:LyraVault",
            "label": "decimals",
            "offset": 0,
            "slot": "0",
            "type": "t_uint8"
          },
          {
            "astId": 40239,
            "contract": "contracts/core/LyraVault.sol:LyraVault",
            "label": "cap",
            "offset": 1,
            "slot": "0",
            "type": "t_uint104"
          },
          {
            "astId": 40241,
            "contract": "contracts/core/LyraVault.sol:LyraVault",
            "label": "asset",
            "offset": 0,
            "slot": "1",
            "type": "t_address"
          }
        ],
        "numberOfBytes": "64"
      },
      "t_struct(VaultState)40259_storage": {
        "encoding": "inplace",
        "label": "struct Vault.VaultState",
        "members": [
          {
            "astId": 40244,
            "contract": "contracts/core/LyraVault.sol:LyraVault",
            "label": "round",
            "offset": 0,
            "slot": "0",
            "type": "t_uint16"
          },
          {
            "astId": 40246,
            "contract": "contracts/core/LyraVault.sol:LyraVault",
            "label": "lockedAmount",
            "offset": 2,
            "slot": "0",
            "type": "t_uint104"
          },
          {
            "astId": 40248,
            "contract": "contracts/core/LyraVault.sol:LyraVault",
            "label": "lastLockedAmount",
            "offset": 15,
            "slot": "0",
            "type": "t_uint104"
          },
          {
            "astId": 40250,
            "contract": "contracts/core/LyraVault.sol:LyraVault",
            "label": "lockedAmountLeft",
            "offset": 0,
            "slot": "1",
            "type": "t_uint256"
          },
          {
            "astId": 40252,
            "contract": "contracts/core/LyraVault.sol:LyraVault",
            "label": "totalPending",
            "offset": 0,
            "slot": "2",
            "type": "t_uint128"
          },
          {
            "astId": 40254,
            "contract": "contracts/core/LyraVault.sol:LyraVault",
            "label": "queuedWithdrawShares",
            "offset": 16,
            "slot": "2",
            "type": "t_uint128"
          },
          {
            "astId": 40256,
            "contract": "contracts/core/LyraVault.sol:LyraVault",
            "label": "nextRoundReadyTimestamp",
            "offset": 0,
            "slot": "3",
            "type": "t_uint256"
          },
          {
            "astId": 40258,
            "contract": "contracts/core/LyraVault.sol:LyraVault",
            "label": "roundInProgress",
            "offset": 0,
            "slot": "4",
            "type": "t_bool"
          }
        ],
        "numberOfBytes": "160"
      },
      "t_struct(Withdrawal)40271_storage": {
        "encoding": "inplace",
        "label": "struct Vault.Withdrawal",
        "members": [
          {
            "astId": 40268,
            "contract": "contracts/core/LyraVault.sol:LyraVault",
            "label": "round",
            "offset": 0,
            "slot": "0",
            "type": "t_uint16"
          },
          {
            "astId": 40270,
            "contract": "contracts/core/LyraVault.sol:LyraVault",
            "label": "shares",
            "offset": 2,
            "slot": "0",
            "type": "t_uint128"
          }
        ],
        "numberOfBytes": "32"
      },
      "t_uint104": {
        "encoding": "inplace",
        "label": "uint104",
        "numberOfBytes": "13"
      },
      "t_uint128": {
        "encoding": "inplace",
        "label": "uint128",
        "numberOfBytes": "16"
      },
      "t_uint16": {
        "encoding": "inplace",
        "label": "uint16",
        "numberOfBytes": "2"
      },
      "t_uint256": {
        "encoding": "inplace",
        "label": "uint256",
        "numberOfBytes": "32"
      },
      "t_uint8": {
        "encoding": "inplace",
        "label": "uint8",
        "numberOfBytes": "1"
      }
    }
  }
}